{
  "_format": "hh-sol-artifact-1",
  "contractName": "GhostTips",
  "sourceName": "contracts/GhostTips.sol",
  "abi": [
    {
      "inputs": [],
      "stateMutability": "nonpayable",
      "type": "constructor"
    },
    {
      "inputs": [
        {
          "internalType": "address",
          "name": "owner",
          "type": "address"
        }
      ],
      "name": "OwnableInvalidOwner",
      "type": "error"
    },
    {
      "inputs": [
        {
          "internalType": "address",
          "name": "account",
          "type": "address"
        }
      ],
      "name": "OwnableUnauthorizedAccount",
      "type": "error"
    },
    {
      "anonymous": false,
      "inputs": [
        {
          "indexed": true,
          "internalType": "uint256",
          "name": "tipJarId",
          "type": "uint256"
        },
        {
          "indexed": true,
          "internalType": "uint256",
          "name": "tipId",
          "type": "uint256"
        },
        {
          "indexed": false,
          "internalType": "bytes32",
          "name": "encryptedSenderHash",
          "type": "bytes32"
        }
      ],
      "name": "GhostTipSent",
      "type": "event"
    },
    {
      "anonymous": false,
      "inputs": [
        {
          "indexed": true,
          "internalType": "address",
          "name": "previousOwner",
          "type": "address"
        },
        {
          "indexed": true,
          "internalType": "address",
          "name": "newOwner",
          "type": "address"
        }
      ],
      "name": "OwnershipTransferred",
      "type": "event"
    },
    {
      "anonymous": false,
      "inputs": [
        {
          "indexed": true,
          "internalType": "uint256",
          "name": "id",
          "type": "uint256"
        },
        {
          "indexed": true,
          "internalType": "address",
          "name": "creator",
          "type": "address"
        },
        {
          "indexed": false,
          "internalType": "string",
          "name": "title",
          "type": "string"
        },
        {
          "indexed": false,
          "internalType": "string",
          "name": "category",
          "type": "string"
        }
      ],
      "name": "TipJarCreated",
      "type": "event"
    },
    {
      "inputs": [
        {
          "internalType": "string",
          "name": "_title",
          "type": "string"
        },
        {
          "internalType": "string",
          "name": "_description",
          "type": "string"
        },
        {
          "internalType": "string",
          "name": "_category",
          "type": "string"
        }
      ],
      "name": "createTipJar",
      "outputs": [
        {
          "internalType": "uint256",
          "name": "",
          "type": "uint256"
        }
      ],
      "stateMutability": "nonpayable",
      "type": "function"
    },
    {
      "inputs": [
        {
          "internalType": "uint256",
          "name": "_tipJarId",
          "type": "uint256"
        }
      ],
      "name": "getEncryptedBalance",
      "outputs": [
        {
          "internalType": "euint64",
          "name": "",
          "type": "bytes32"
        }
      ],
      "stateMutability": "view",
      "type": "function"
    },
    {
      "inputs": [],
      "name": "getTipCount",
      "outputs": [
        {
          "internalType": "uint256",
          "name": "",
          "type": "uint256"
        }
      ],
      "stateMutability": "view",
      "type": "function"
    },
    {
      "inputs": [],
      "name": "getTipJarCount",
      "outputs": [
        {
          "internalType": "uint256",
          "name": "",
          "type": "uint256"
        }
      ],
      "stateMutability": "view",
      "type": "function"
    },
    {
      "inputs": [
        {
          "internalType": "address",
          "name": "_user",
          "type": "address"
        }
      ],
      "name": "getUserTipJars",
      "outputs": [
        {
          "internalType": "uint256[]",
          "name": "",
          "type": "uint256[]"
        }
      ],
      "stateMutability": "view",
      "type": "function"
    },
    {
      "inputs": [],
      "name": "owner",
      "outputs": [
        {
          "internalType": "address",
          "name": "",
          "type": "address"
        }
      ],
      "stateMutability": "view",
      "type": "function"
    },
    {
      "inputs": [],
      "name": "protocolId",
      "outputs": [
        {
          "internalType": "uint256",
          "name": "",
          "type": "uint256"
        }
      ],
      "stateMutability": "pure",
      "type": "function"
    },
    {
      "inputs": [],
      "name": "renounceOwnership",
      "outputs": [],
      "stateMutability": "nonpayable",
      "type": "function"
    },
    {
      "inputs": [
        {
          "internalType": "uint256",
          "name": "_tipJarId",
          "type": "uint256"
        },
        {
          "internalType": "externalEuint64",
          "name": "_encryptedAmount",
          "type": "bytes32"
        },
        {
          "internalType": "string",
          "name": "_encryptedMessage",
          "type": "string"
        },
        {
          "internalType": "bytes",
          "name": "inputProof",
          "type": "bytes"
        }
      ],
      "name": "sendGhostTip",
      "outputs": [],
      "stateMutability": "payable",
      "type": "function"
    },
    {
      "inputs": [
        {
          "internalType": "uint256",
          "name": "",
          "type": "uint256"
        }
      ],
      "name": "tipJars",
      "outputs": [
        {
          "internalType": "uint256",
          "name": "id",
          "type": "uint256"
        },
        {
          "internalType": "address",
          "name": "creator",
          "type": "address"
        },
        {
          "internalType": "string",
          "name": "title",
          "type": "string"
        },
        {
          "internalType": "string",
          "name": "description",
          "type": "string"
        },
        {
          "internalType": "string",
          "name": "category",
          "type": "string"
        },
        {
          "internalType": "euint64",
          "name": "encryptedBalance",
          "type": "bytes32"
        },
        {
          "internalType": "euint32",
          "name": "encryptedTipCount",
          "type": "bytes32"
        },
        {
          "internalType": "bool",
          "name": "isActive",
          "type": "bool"
        },
        {
          "internalType": "uint256",
          "name": "createdAt",
          "type": "uint256"
        }
      ],
      "stateMutability": "view",
      "type": "function"
    },
    {
      "inputs": [
        {
          "internalType": "uint256",
          "name": "",
          "type": "uint256"
        }
      ],
      "name": "tips",
      "outputs": [
        {
          "internalType": "uint256",
          "name": "tipJarId",
          "type": "uint256"
        },
        {
          "internalType": "eaddress",
          "name": "encryptedSender",
          "type": "bytes32"
        },
        {
          "internalType": "euint64",
          "name": "encryptedAmount",
          "type": "bytes32"
        },
        {
          "internalType": "string",
          "name": "encryptedMessage",
          "type": "string"
        },
        {
          "internalType": "bool",
          "name": "isClaimed",
          "type": "bool"
        },
        {
          "internalType": "uint256",
          "name": "createdAt",
          "type": "uint256"
        }
      ],
      "stateMutability": "view",
      "type": "function"
    },
    {
      "inputs": [
        {
          "internalType": "address",
          "name": "newOwner",
          "type": "address"
        }
      ],
      "name": "transferOwnership",
      "outputs": [],
      "stateMutability": "nonpayable",
      "type": "function"
    },
    {
      "inputs": [
        {
          "internalType": "address",
          "name": "",
          "type": "address"
        },
        {
          "internalType": "uint256",
          "name": "",
          "type": "uint256"
        }
      ],
      "name": "userTipJars",
      "outputs": [
        {
          "internalType": "uint256",
          "name": "",
          "type": "uint256"
        }
      ],
      "stateMutability": "view",
      "type": "function"
    }
  ],
  "bytecode": "0x608060405234801561000f575f5ffd5b503361018b6100af604080516080810182525f80825260208201819052918101829052606081019190915250604080516080810182527350157cffd6bbfa2dece204a89ec419c23ef5755d815273cd3ab3bd6bcc0c0bf3e27912a92043e817b1cf69602082015273a02cda4ca3a71d7c46997716f4283aa851c2881291810191909152731364cbbf2cdf5032c47d8226a6f6fbd2afcdacac606082015290565b80517f9e7b61f58c47dc699ac88507c4f5bb9f121c03808c5676a8078fe583e464970080546001600160a01b03199081166001600160a01b039384161790915560208301517f9e7b61f58c47dc699ac88507c4f5bb9f121c03808c5676a8078fe583e46497018054831691841691909117905560408301517f9e7b61f58c47dc699ac88507c4f5bb9f121c03808c5676a8078fe583e46497028054831691841691909117905560608301517f9e7b61f58c47dc699ac88507c4f5bb9f121c03808c5676a8078fe583e46497038054909216921691909117905550565b6001600160a01b0381166101b857604051631e4fbdf760e01b81525f600482015260240160405180910390fd5b6101c1816101d0565b505f600181905560025561021f565b5f80546001600160a01b038381166001600160a01b0319831681178455604051919092169283917f8be0079c531659141344cd1fd0a4f28419497f9722a3daafe3b4186f6b6457e09190a35050565b6114148061022c5f395ff3fe6080604052600436106100ce575f3560e01c8063a5c68c591161007c578063da1f12ab11610057578063da1f12ab14610218578063dbd5f81c1461022c578063e252d6791461024b578063f2fde38b1461025e575f5ffd5b8063a5c68c59146101a9578063b8550298146101da578063d8d7a492146101f9575f5ffd5b80638046c0c4116100ac5780638046c0c4146101435780638da5cb5b146101575780639aa89e951461017d575f5ffd5b8063146f41ad146100d2578063715018a61461010f5780637dc1a64f14610125575b5f5ffd5b3480156100dd575f5ffd5b506100f16100ec366004610e8c565b61027d565b60405161010699989796959493929190610ed1565b60405180910390f35b34801561011a575f5ffd5b50610123610466565b005b348015610130575f5ffd5b506002545b604051908152602001610106565b34801561014e575f5ffd5b50600154610135565b348015610162575f5ffd5b505f546040516001600160a01b039091168152602001610106565b348015610188575f5ffd5b5061019c610197366004610f65565b610479565b6040516101069190610f7e565b3480156101b4575f5ffd5b506101c86101c3366004610e8c565b6104e2565b60405161010696959493929190610fc0565b3480156101e5575f5ffd5b506101356101f4366004610ff9565b6105a2565b348015610204575f5ffd5b50610135610213366004610e8c565b6105cd565b348015610223575f5ffd5b50612711610135565b348015610237575f5ffd5b506101356102463660046110c0565b61064f565b61012361025936600461114e565b610783565b348015610269575f5ffd5b50610123610278366004610f65565b6109c2565b60036020525f908152604090208054600182015460028301805492936001600160a01b03909216926102ae906111f6565b80601f01602080910402602001604051908101604052809291908181526020018280546102da906111f6565b80156103255780601f106102fc57610100808354040283529160200191610325565b820191905f5260205f20905b81548152906001019060200180831161030857829003601f168201915b50505050509080600301805461033a906111f6565b80601f0160208091040260200160405190810160405280929190818152602001828054610366906111f6565b80156103b15780601f10610388576101008083540402835291602001916103b1565b820191905f5260205f20905b81548152906001019060200180831161039457829003601f168201915b5050505050908060040180546103c6906111f6565b80601f01602080910402602001604051908101604052809291908181526020018280546103f2906111f6565b801561043d5780601f106104145761010080835404028352916020019161043d565b820191905f5260205f20905b81548152906001019060200180831161042057829003601f168201915b5050506005840154600685015460078601546008909601549495919490935060ff909116915089565b61046e6109ff565b6104775f610a2b565b565b6001600160a01b0381165f908152600560209081526040918290208054835181840281018401909452808452606093928301828280156104d657602002820191905f5260205f20905b8154815260200190600101908083116104c2575b50505050509050919050565b60046020525f9081526040902080546001820154600283015460038401805493949293919291610511906111f6565b80601f016020809104026020016040519081016040528092919081815260200182805461053d906111f6565b80156105885780601f1061055f57610100808354040283529160200191610588565b820191905f5260205f20905b81548152906001019060200180831161056b57829003601f168201915b505050506004830154600590930154919260ff1691905086565b6005602052815f5260405f2081815481106105bb575f80fd5b905f5260205f20015f91509150505481565b5f818152600360205260408120600101546001600160a01b0316331461063a5760405162461bcd60e51b815260206004820152600e60248201527f4e6f7420617574686f72697a656400000000000000000000000000000000000060448201526064015b60405180910390fd5b505f9081526003602052604090206005015490565b600180545f918261065f8361122e565b9091555050600180545f818152600360205260409020908155908101805473ffffffffffffffffffffffffffffffffffffffff191633179055600281016106a6868261129e565b50600381016106b5858261129e565b50600481016106c4848261129e565b506106ce5f610a87565b60058201556106dc5f610aa3565b600682015560078101805460ff19166001179055426008820155600581015461070490610ab5565b506107128160060154610ab5565b50335f8181526005602090815260408083206001805482548083018455928652939094200191909155905490517fde278f97c23de7d062ed6d749dfbdb809f4420d0618d21c1c396fe35027b65059061076e9089908890611359565b60405180910390a350506001545b9392505050565b5f8581526003602052604090206007015460ff166107e35760405162461bcd60e51b815260206004820152601560248201527f546970206a6172206973206e6f742061637469766500000000000000000000006044820152606401610631565b5f34116108325760405162461bcd60e51b815260206004820152601660248201527f4d7573742073656e6420455448207769746820746970000000000000000000006044820152606401610631565b5f6108728584848080601f0160208091040260200160405190810160405280939291908181526020018383808284375f92019190915250610ac492505050565b600280549192505f6108838361122e565b90915550506002545f9081526004602052604090208681556108a433610ad1565b600182015560028101829055600381016108be868261129e565b5060048101805460ff19169055426005808301919091555f888152600360205260409020908101546108f09084610ae6565b6005820155600681015461090d906109086001610aa3565b610b14565b6006820155600581015461092090610ab5565b5061092e8160060154610ab5565b5060018101546109489084906001600160a01b0316610b34565b506002546040516bffffffffffffffffffffffff193360601b16602082015242603482015289907f746b3ec4b60cc03c853331bbb1566cca8337416f3a91bcda6ee5359d2f9299679060540160408051601f1981840301815290829052805160209182012082520160405180910390a35050505050505050565b6109ca6109ff565b6001600160a01b0381166109f357604051631e4fbdf760e01b81525f6004820152602401610631565b6109fc81610a2b565b50565b5f546001600160a01b031633146104775760405163118cdaa760e01b8152336004820152602401610631565b5f80546001600160a01b0383811673ffffffffffffffffffffffffffffffffffffffff19831681178455604051919092169283917f8be0079c531659141344cd1fd0a4f28419497f9722a3daafe3b4186f6b6457e09190a35050565b5f610a9d8267ffffffffffffffff166005610b46565b92915050565b5f610a9d8263ffffffff166004610b46565b5f610ac08230610c03565b5090565b5f61077c83836005610c8c565b5f610a9d826001600160a01b03166007610b46565b5f82610af857610af55f610a87565b92505b81610b0957610b065f610a87565b91505b61077c83835f610dac565b5f82610b2657610b235f610aa3565b92505b81610b0957610b065f610aa3565b5f610b3f8383610c03565b5090919050565b7f9e7b61f58c47dc699ac88507c4f5bb9f121c03808c5676a8078fe583e464970154604051639cd07acb60e01b81525f917f9e7b61f58c47dc699ac88507c4f5bb9f121c03808c5676a8078fe583e4649700916001600160a01b0390911690639cd07acb90610bbb90879087906004016113a6565b6020604051808303815f875af1158015610bd7573d5f5f3e3d5ffd5b505050506040513d601f19601f82011682018060405250810190610bfb91906113ba565b949350505050565b5f7f9e7b61f58c47dc699ac88507c4f5bb9f121c03808c5676a8078fe583e46497008054604051635ca4b5b160e11b8152600481018690526001600160a01b03858116602483015292935091169063b9496b62906044015f604051808303815f87803b158015610c71575f5ffd5b505af1158015610c83573d5f5f3e3d5ffd5b50505050505050565b7f9e7b61f58c47dc699ac88507c4f5bb9f121c03808c5676a8078fe583e46497015460405163196d0b9b60e01b81525f917f9e7b61f58c47dc699ac88507c4f5bb9f121c03808c5676a8078fe583e4649700916001600160a01b039091169063196d0b9b90610d059088903390899089906004016113d1565b6020604051808303815f875af1158015610d21573d5f5f3e3d5ffd5b505050506040513d601f19601f82011682018060405250810190610d4591906113ba565b8154604051630f8e573b60e21b8152600481018390523360248201529193506001600160a01b031690633e395cec906044015f604051808303815f87803b158015610d8e575f5ffd5b505af1158015610da0573d5f5f3e3d5ffd5b50505050509392505050565b5f5f8215610dbf5750600160f81b610dc2565b505f5b5f7f9e7b61f58c47dc699ac88507c4f5bb9f121c03808c5676a8078fe583e4649700600181015460405163022f65e760e31b815260048101899052602481018890527fff00000000000000000000000000000000000000000000000000000000000000851660448201529192506001600160a01b03169063117b2f38906064016020604051808303815f875af1158015610e5e573d5f5f3e3d5ffd5b505050506040513d601f19601f82011682018060405250810190610e8291906113ba565b9695505050505050565b5f60208284031215610e9c575f5ffd5b5035919050565b5f81518084528060208401602086015e5f602082860101526020601f19601f83011685010191505092915050565b8981526001600160a01b038916602082015261012060408201525f610efa61012083018a610ea3565b8281036060840152610f0c818a610ea3565b90508281036080840152610f208189610ea3565b60a0840197909752505060c081019390935290151560e08301526101009091015295945050505050565b80356001600160a01b0381168114610f60575f5ffd5b919050565b5f60208284031215610f75575f5ffd5b61077c82610f4a565b602080825282518282018190525f918401906040840190835b81811015610fb5578351835260209384019390920191600101610f97565b509095945050505050565b86815285602082015284604082015260c060608201525f610fe460c0830186610ea3565b93151560808301525060a00152949350505050565b5f5f6040838503121561100a575f5ffd5b61101383610f4a565b946020939093013593505050565b634e487b7160e01b5f52604160045260245ffd5b5f82601f830112611044575f5ffd5b813567ffffffffffffffff81111561105e5761105e611021565b604051601f8201601f19908116603f0116810167ffffffffffffffff8111828210171561108d5761108d611021565b6040528181528382016020018510156110a4575f5ffd5b816020850160208301375f918101602001919091529392505050565b5f5f5f606084860312156110d2575f5ffd5b833567ffffffffffffffff8111156110e8575f5ffd5b6110f486828701611035565b935050602084013567ffffffffffffffff811115611110575f5ffd5b61111c86828701611035565b925050604084013567ffffffffffffffff811115611138575f5ffd5b61114486828701611035565b9150509250925092565b5f5f5f5f5f60808688031215611162575f5ffd5b8535945060208601359350604086013567ffffffffffffffff811115611186575f5ffd5b61119288828901611035565b935050606086013567ffffffffffffffff8111156111ae575f5ffd5b8601601f810188136111be575f5ffd5b803567ffffffffffffffff8111156111d4575f5ffd5b8860208284010111156111e5575f5ffd5b959894975092955050506020019190565b600181811c9082168061120a57607f821691505b60208210810361122857634e487b7160e01b5f52602260045260245ffd5b50919050565b5f6001820161124b57634e487b7160e01b5f52601160045260245ffd5b5060010190565b601f82111561129957805f5260205f20601f840160051c810160208510156112775750805b601f840160051c820191505b81811015611296575f8155600101611283565b50505b505050565b815167ffffffffffffffff8111156112b8576112b8611021565b6112cc816112c684546111f6565b84611252565b6020601f8211600181146112fe575f83156112e75750848201515b5f19600385901b1c1916600184901b178455611296565b5f84815260208120601f198516915b8281101561132d578785015182556020948501946001909201910161130d565b508482101561134a57868401515f19600387901b60f8161c191681555b50505050600190811b01905550565b604081525f61136b6040830185610ea3565b828103602084015261137d8185610ea3565b95945050505050565b605481106113a257634e487b7160e01b5f52602160045260245ffd5b9052565b8281526040810161077c6020830184611386565b5f602082840312156113ca575f5ffd5b5051919050565b8481526001600160a01b0384166020820152608060408201525f6113f86080830185610ea3565b905061137d606083018461138656fea164736f6c634300081b000a",
  "linkReferences": {},
  "deployedLinkReferences": {}
}