{
  "_format": "hh-sol-artifact-1",
  "contractName": "GhostToken",
  "sourceName": "contracts/GhostToken.sol",
  "abi": [
    {
      "inputs": [],
      "stateMutability": "nonpayable",
      "type": "constructor"
    },
    {
      "anonymous": false,
      "inputs": [
        {
          "indexed": true,
          "internalType": "address",
          "name": "owner",
          "type": "address"
        },
        {
          "indexed": true,
          "internalType": "address",
          "name": "spender",
          "type": "address"
        },
        {
          "indexed": false,
          "internalType": "uint64",
          "name": "amount",
          "type": "uint64"
        }
      ],
      "name": "Approval",
      "type": "event"
    },
    {
      "anonymous": false,
      "inputs": [
        {
          "indexed": true,
          "internalType": "address",
          "name": "user",
          "type": "address"
        },
        {
          "indexed": false,
          "internalType": "uint256",
          "name": "amount",
          "type": "uint256"
        }
      ],
      "name": "Deposit",
      "type": "event"
    },
    {
      "anonymous": false,
      "inputs": [
        {
          "indexed": true,
          "internalType": "address",
          "name": "from",
          "type": "address"
        },
        {
          "indexed": true,
          "internalType": "address",
          "name": "to",
          "type": "address"
        },
        {
          "indexed": false,
          "internalType": "ebool",
          "name": "success",
          "type": "bytes32"
        }
      ],
      "name": "Transfer",
      "type": "event"
    },
    {
      "anonymous": false,
      "inputs": [
        {
          "indexed": true,
          "internalType": "address",
          "name": "user",
          "type": "address"
        },
        {
          "indexed": false,
          "internalType": "uint256",
          "name": "amount",
          "type": "uint256"
        },
        {
          "indexed": false,
          "internalType": "ebool",
          "name": "success",
          "type": "bytes32"
        }
      ],
      "name": "Withdrawal",
      "type": "event"
    },
    {
      "inputs": [
        {
          "internalType": "address",
          "name": "spender",
          "type": "address"
        },
        {
          "internalType": "uint64",
          "name": "amount",
          "type": "uint64"
        }
      ],
      "name": "approve",
      "outputs": [
        {
          "internalType": "bool",
          "name": "",
          "type": "bool"
        }
      ],
      "stateMutability": "nonpayable",
      "type": "function"
    },
    {
      "inputs": [
        {
          "internalType": "address",
          "name": "account",
          "type": "address"
        }
      ],
      "name": "balanceOf",
      "outputs": [
        {
          "internalType": "euint64",
          "name": "",
          "type": "bytes32"
        }
      ],
      "stateMutability": "view",
      "type": "function"
    },
    {
      "inputs": [],
      "name": "decimals",
      "outputs": [
        {
          "internalType": "uint8",
          "name": "",
          "type": "uint8"
        }
      ],
      "stateMutability": "view",
      "type": "function"
    },
    {
      "inputs": [],
      "name": "deposit",
      "outputs": [],
      "stateMutability": "payable",
      "type": "function"
    },
    {
      "inputs": [],
      "name": "name",
      "outputs": [
        {
          "internalType": "string",
          "name": "",
          "type": "string"
        }
      ],
      "stateMutability": "view",
      "type": "function"
    },
    {
      "inputs": [],
      "name": "protocolId",
      "outputs": [
        {
          "internalType": "uint256",
          "name": "",
          "type": "uint256"
        }
      ],
      "stateMutability": "pure",
      "type": "function"
    },
    {
      "inputs": [],
      "name": "symbol",
      "outputs": [
        {
          "internalType": "string",
          "name": "",
          "type": "string"
        }
      ],
      "stateMutability": "view",
      "type": "function"
    },
    {
      "inputs": [
        {
          "internalType": "address",
          "name": "to",
          "type": "address"
        },
        {
          "internalType": "uint64",
          "name": "amount",
          "type": "uint64"
        }
      ],
      "name": "transfer",
      "outputs": [
        {
          "internalType": "bool",
          "name": "",
          "type": "bool"
        }
      ],
      "stateMutability": "nonpayable",
      "type": "function"
    },
    {
      "inputs": [
        {
          "internalType": "address",
          "name": "from",
          "type": "address"
        },
        {
          "internalType": "address",
          "name": "to",
          "type": "address"
        },
        {
          "internalType": "uint64",
          "name": "amount",
          "type": "uint64"
        }
      ],
      "name": "transferFrom",
      "outputs": [
        {
          "internalType": "bool",
          "name": "",
          "type": "bool"
        }
      ],
      "stateMutability": "nonpayable",
      "type": "function"
    },
    {
      "inputs": [
        {
          "internalType": "uint64",
          "name": "tokenAmount",
          "type": "uint64"
        }
      ],
      "name": "withdraw",
      "outputs": [],
      "stateMutability": "nonpayable",
      "type": "function"
    },
    {
      "stateMutability": "payable",
      "type": "receive"
    }
  ],
  "bytecode": "0x60c0604052600b60809081526a23b437b9ba102a37b5b2b760a91b60a0526000906200002c90826200029e565b5060408051808201909152600581526411d213d4d560da1b60208201526001906200005890826200029e565b506002805460ff191660121790553480156200007357600080fd5b50620001f162000115604080516080810182526000808252602082018190529181018290526060810191909152506040805160808101825273687820221192c5b662b25367f70076a37bc79b6c815273848b0066793bcc60346da1f49049357399b8d595602082015273a02cda4ca3a71d7c46997716f4283aa851c2881291810191909152731364cbbf2cdf5032c47d8226a6f6fbd2afcdacac606082015290565b80517f9e7b61f58c47dc699ac88507c4f5bb9f121c03808c5676a8078fe583e464970080546001600160a01b03199081166001600160a01b039384161790915560208301517f9e7b61f58c47dc699ac88507c4f5bb9f121c03808c5676a8078fe583e46497018054831691841691909117905560408301517f9e7b61f58c47dc699ac88507c4f5bb9f121c03808c5676a8078fe583e46497028054831691841691909117905560608301517f9e7b61f58c47dc699ac88507c4f5bb9f121c03808c5676a8078fe583e46497038054909216921691909117905550565b6200036a565b634e487b7160e01b600052604160045260246000fd5b600181811c908216806200022257607f821691505b6020821081036200024357634e487b7160e01b600052602260045260246000fd5b50919050565b601f82111562000299576000816000526020600020601f850160051c81016020861015620002745750805b601f850160051c820191505b81811015620002955782815560010162000280565b5050505b505050565b81516001600160401b03811115620002ba57620002ba620001f7565b620002d281620002cb84546200020d565b8462000249565b602080601f8311600181146200030a5760008415620002f15750858301515b600019600386901b1c1916600185901b17855562000295565b600085815260208120601f198616915b828110156200033b578886015182559484019460019091019084016200031a565b50858210156200035a5787850151600019600388901b60f8161c191681555b5050505050600190811b01905550565b611622806200037a6000396000f3fe6080604052600436106100b55760003560e01c806370a082311161006957806395d89b411161004e57806395d89b41146101ee578063d0e30db014610203578063da1f12ab1461020b57600080fd5b806370a0823114610188578063750f0acc146101cc57600080fd5b80632ea0dfe11161009a5780632ea0dfe11461011c578063313ce5671461013c5780635d359fbd1461016857600080fd5b806306fdde03146100c15780631086a9aa146100ec57600080fd5b366100bc57005b600080fd5b3480156100cd57600080fd5b506100d6610220565b6040516100e391906113f1565b60405180910390f35b3480156100f857600080fd5b5061010c610107366004611474565b6102ae565b60405190151581526020016100e3565b34801561012857600080fd5b5061010c6101373660046114a7565b6103bf565b34801561014857600080fd5b506002546101569060ff1681565b60405160ff90911681526020016100e3565b34801561017457600080fd5b5061010c610183366004611474565b61074f565b34801561019457600080fd5b506101be6101a33660046114ea565b6001600160a01b031660009081526003602052604090205490565b6040519081526020016100e3565b3480156101d857600080fd5b506101ec6101e7366004611505565b610968565b005b3480156101fa57600080fd5b506100d6610b6e565b6101ec610b7b565b34801561021757600080fd5b506127116101be565b6000805461022d90611520565b80601f016020809104026020016040519081016040528092919081815260200182805461025990611520565b80156102a65780601f1061027b576101008083540402835291602001916102a6565b820191906000526020600020905b81548152906001019060200180831161028957829003601f168201915b505050505081565b60006001600160a01b03831661030b5760405162461bcd60e51b815260206004820152600f60248201527f496e76616c6964207370656e646572000000000000000000000000000000000060448201526064015b60405180910390fd5b600061031683610c8e565b3360009081526004602090815260408083206001600160a01b03891684529091529020819055905061034781610ca5565b506103528130610cb5565b5061035d8133610cb5565b506103688185610cb5565b5060405167ffffffffffffffff841681526001600160a01b0385169033907f16304dfea7f3fbabcf59225f0629cb307fecb8d5652b069080aa9be2c765d7d29060200160405180910390a360019150505b92915050565b6000808267ffffffffffffffff161161041a5760405162461bcd60e51b815260206004820152601760248201527f416d6f756e74206d75737420626520706f7369746976650000000000000000006044820152606401610302565b6001600160a01b0383166104705760405162461bcd60e51b815260206004820152601160248201527f496e76616c696420726563697069656e740000000000000000000000000000006044820152606401610302565b6001600160a01b0384166104c65760405162461bcd60e51b815260206004820152600e60248201527f496e76616c69642073656e6465720000000000000000000000000000000000006044820152606401610302565b6104cf84610cc8565b6104d883610cc8565b60006104e383610c8e565b6001600160a01b03861660009081526003602090815260408083205460048352818420338552909252909120549192509061051d82610ca5565b5061052781610ca5565b5060006105348385610d86565b905060006105428386610d86565b905060006105508383610dbf565b9050600061056882610562888a610df1565b88610e23565b6001600160a01b038b16600090815260036020526040812054919250906105b3908490610595908b610e38565b6001600160a01b038e16600090815260036020526040902054610e23565b905060006105cb846105c5898c610df1565b89610e23565b905082600360008f6001600160a01b03166001600160a01b031681526020019081526020016000208190555081600360008e6001600160a01b03166001600160a01b031681526020019081526020016000208190555080600460008f6001600160a01b03166001600160a01b031681526020019081526020016000206000336001600160a01b03166001600160a01b031681526020019081526020016000208190555061067783610ca5565b5061068182610ca5565b5061068b81610ca5565b506106968330610cb5565b506106a1838e610cb5565b506106ac8230610cb5565b506106b7828d610cb5565b506106c28130610cb5565b506106cd818e610cb5565b506106d88133610cb5565b506106e3848e610cb5565b506106ee8433610cb5565b508b6001600160a01b03168d6001600160a01b03167f8d61cf26ce654b1352bb60df9f3d4056b9e85a63977debf8fc9cd727aeda767e8660405161073491815260200190565b60405180910390a35060019c9b505050505050505050505050565b6000808267ffffffffffffffff16116107aa5760405162461bcd60e51b815260206004820152601760248201527f416d6f756e74206d75737420626520706f7369746976650000000000000000006044820152606401610302565b6001600160a01b0383166108005760405162461bcd60e51b815260206004820152601160248201527f496e76616c696420726563697069656e740000000000000000000000000000006044820152606401610302565b61080933610cc8565b61081283610cc8565b600061081d83610c8e565b3360009081526003602052604090205490915061083981610ca5565b5060006108468284610d86565b9050600061085e826108588587610df1565b85610e23565b6001600160a01b038816600090815260036020526040812054919250906108a990849061088b9088610e38565b6001600160a01b038b16600090815260036020526040902054610e23565b336000908152600360205260408082208590556001600160a01b038b168252902081905590506108d882610ca5565b506108e281610ca5565b506108ed8230610cb5565b506108f88233610cb5565b506109038130610cb5565b5061090e8189610cb5565b506109198333610cb5565b506040518381526001600160a01b0389169033907f8d61cf26ce654b1352bb60df9f3d4056b9e85a63977debf8fc9cd727aeda767e9060200160405180910390a3506001979650505050505050565b60008167ffffffffffffffff16116109c25760405162461bcd60e51b815260206004820152601d60248201527f4d75737420776974686472617720706f73697469766520616d6f756e740000006044820152606401610302565b6109cb33610cc8565b60006103e86109ec67ffffffffffffffff8416670de0b6b3a764000061155a565b6109f6919061157f565b905080471015610a6e5760405162461bcd60e51b815260206004820152602160248201527f496e73756666696369656e7420636f6e7472616374204554482062616c616e6360448201527f65000000000000000000000000000000000000000000000000000000000000006064820152608401610302565b6000610a7983610c8e565b33600090815260036020526040902054909150610a9581610ca5565b506000610aa28284610d86565b90506000610ab4826108588587610df1565b3360009081526003602052604090208190559050610ad181610ca5565b50610adc8130610cb5565b50610ae78133610cb5565b50610af28233610cb5565b50604051339086156108fc029087906000818181858888f19350505050158015610b20573d6000803e3d6000fd5b506040805167ffffffffffffffff881681526020810184905233917f806bc37112176c187cccea4249aea74827b609b5e40d595301442638bfd57367910160405180910390a2505050505050565b6001805461022d90611520565b60003411610bcb5760405162461bcd60e51b815260206004820152600d60248201527f4d7573742073656e6420455448000000000000000000000000000000000000006044820152606401610302565b610bd433610cc8565b6000670de0b6b3a7640000610beb346103e861155a565b610bf5919061157f565b90506000610c0282610c8e565b3360009081526003602052604081205491925090610c209083610e38565b3360009081526003602052604090208190559050610c3d81610ca5565b50610c488130610cb5565b50610c538133610cb5565b5060405134815233907fe1fffcc4923d04b559f4d29a8bfc6cda04eb5b0d3c460751c2402c5c5cc9109c9060200160405180910390a2505050565b60006103b98267ffffffffffffffff166005610e6a565b6000610cb18230610f3c565b5090565b6000610cc18383610f3c565b5090919050565b6001600160a01b03811660009081526005602052604090205460ff16610d8357610cf26000610c8e565b6001600160a01b0382166000908152600360205260409020819055610d1690610ca5565b506001600160a01b038116600090815260036020526040902054610d3a9030610cb5565b506001600160a01b038116600090815260036020526040902054610d5e9082610cb5565b506001600160a01b0381166000908152600560205260409020805460ff191660011790555b50565b600082610d9a57610d976000610c8e565b92505b81610dac57610da96000610c8e565b91505b610db883836000610fe4565b9392505050565b600082610dd357610dd060006110e5565b92505b81610de557610de260006110e5565b91505b610db883836000611103565b600082610e0557610e026000610c8e565b92505b81610e1757610e146000610c8e565b91505b610db8838360006111bb565b6000610e30848484611273565b949350505050565b600082610e4c57610e496000610c8e565b92505b81610e5e57610e5b6000610c8e565b91505b610db883836000611339565b7f9e7b61f58c47dc699ac88507c4f5bb9f121c03808c5676a8078fe583e4649701546040517f9cd07acb0000000000000000000000000000000000000000000000000000000081526000917f9e7b61f58c47dc699ac88507c4f5bb9f121c03808c5676a8078fe583e4649700916001600160a01b0390911690639cd07acb90610ef990879087906004016115a1565b6020604051808303816000875af1158015610f18573d6000803e3d6000fd5b505050506040513d601f19601f82011682018060405250810190610e3091906115d3565b60007f9e7b61f58c47dc699ac88507c4f5bb9f121c03808c5676a8078fe583e464970080546040517fb9496b62000000000000000000000000000000000000000000000000000000008152600481018690526001600160a01b03858116602483015292935091169063b9496b6290604401600060405180830381600087803b158015610fc757600080fd5b505af1158015610fdb573d6000803e3d6000fd5b50505050505050565b6000808215610ff85750600160f81b610ffc565b5060005b7f9e7b61f58c47dc699ac88507c4f5bb9f121c03808c5676a8078fe583e4649701546040517f1391547f00000000000000000000000000000000000000000000000000000000815260048101879052602481018690526001600160f81b0319831660448201527f9e7b61f58c47dc699ac88507c4f5bb9f121c03808c5676a8078fe583e4649700916001600160a01b031690631391547f906064015b6020604051808303816000875af11580156110b7573d6000803e3d6000fd5b505050506040513d601f19601f820116820180604052508101906110db91906115d3565b9695505050505050565b60006103b9826110f65760006110f9565b60015b60ff166000610e6a565b60008082156111175750600160f81b61111b565b5060005b7f9e7b61f58c47dc699ac88507c4f5bb9f121c03808c5676a8078fe583e4649701546040517fd99882d500000000000000000000000000000000000000000000000000000000815260048101879052602481018690526001600160f81b0319831660448201527f9e7b61f58c47dc699ac88507c4f5bb9f121c03808c5676a8078fe583e4649700916001600160a01b03169063d99882d590606401611098565b60008082156111cf5750600160f81b6111d3565b5060005b7f9e7b61f58c47dc699ac88507c4f5bb9f121c03808c5676a8078fe583e4649701546040517f182b6d9800000000000000000000000000000000000000000000000000000000815260048101879052602481018690526001600160f81b0319831660448201527f9e7b61f58c47dc699ac88507c4f5bb9f121c03808c5676a8078fe583e4649700916001600160a01b03169063182b6d9890606401611098565b6000807f9e7b61f58c47dc699ac88507c4f5bb9f121c03808c5676a8078fe583e464970060018101546040517f7702dcff0000000000000000000000000000000000000000000000000000000081526004810188905260248101879052604481018690529192506001600160a01b031690637702dcff906064016020604051808303816000875af115801561130c573d6000803e3d6000fd5b505050506040513d601f19601f8201168201806040525081019061133091906115d3565b95945050505050565b600080821561134d5750600160f81b611351565b5060005b7f9e7b61f58c47dc699ac88507c4f5bb9f121c03808c5676a8078fe583e4649701546040517f117b2f3800000000000000000000000000000000000000000000000000000000815260048101879052602481018690526001600160f81b0319831660448201527f9e7b61f58c47dc699ac88507c4f5bb9f121c03808c5676a8078fe583e4649700916001600160a01b03169063117b2f3890606401611098565b60006020808352835180602085015260005b8181101561141f57858101830151858201604001528201611403565b506000604082860101526040601f19601f8301168501019250505092915050565b80356001600160a01b038116811461145757600080fd5b919050565b803567ffffffffffffffff8116811461145757600080fd5b6000806040838503121561148757600080fd5b61149083611440565b915061149e6020840161145c565b90509250929050565b6000806000606084860312156114bc57600080fd5b6114c584611440565b92506114d360208501611440565b91506114e16040850161145c565b90509250925092565b6000602082840312156114fc57600080fd5b610db882611440565b60006020828403121561151757600080fd5b610db88261145c565b600181811c9082168061153457607f821691505b60208210810361155457634e487b7160e01b600052602260045260246000fd5b50919050565b80820281158282048414176103b957634e487b7160e01b600052601160045260246000fd5b60008261159c57634e487b7160e01b600052601260045260246000fd5b500490565b82815260408101605483106115c657634e487b7160e01b600052602160045260246000fd5b8260208301529392505050565b6000602082840312156115e557600080fd5b505191905056fea26469706673582212206280ea40268895c53bd9c5e2fe6026e8a4a5c0b5f5683f7e2fb32cc2f7aab53364736f6c63430008180033",
  "linkReferences": {},
  "deployedLinkReferences": {}
}