{
  "_format": "hh-sol-artifact-1",
  "contractName": "EthereumConfig",
  "sourceName": "@fhevm/solidity/config/ZamaConfig.sol",
  "abi": [
    {
      "inputs": [],
      "stateMutability": "nonpayable",
      "type": "constructor"
    },
    {
      "inputs": [],
      "name": "protocolId",
      "outputs": [
        {
          "internalType": "uint256",
          "name": "",
          "type": "uint256"
        }
      ],
      "stateMutability": "pure",
      "type": "function"
    }
  ],
  "bytecode": "0x608060405234801561001057600080fd5b5061013861005c60408051608080820183526000808352602080840182905283850182905260609384018290528451928301855281835282018190529281018390529081019190915290565b80517f9e7b61f58c47dc699ac88507c4f5bb9f121c03808c5676a8078fe583e464970080546001600160a01b03199081166001600160a01b039384161790915560208301517f9e7b61f58c47dc699ac88507c4f5bb9f121c03808c5676a8078fe583e46497018054831691841691909117905560408301517f9e7b61f58c47dc699ac88507c4f5bb9f121c03808c5676a8078fe583e46497028054831691841691909117905560608301517f9e7b61f58c47dc699ac88507c4f5bb9f121c03808c5676a8078fe583e46497038054909216921691909117905550565b6077806101466000396000f3fe6080604052348015600f57600080fd5b506004361060285760003560e01c8063da1f12ab14602d575b600080fd5b600160405190815260200160405180910390f3fea26469706673582212207a818523faa3c12d594284289f267bef34a4b05b90aab33b95629d46f68251eb64736f6c63430008180033",
  "linkReferences": {},
  "deployedLinkReferences": {}
}