{
  "address": "0xBDFfAeAA7F6a7c96fD8b45d9Cd422c46dDB4AD9A",
  "abi": [
    {
      "inputs": [],
      "stateMutability": "nonpayable",
      "type": "constructor"
    },
    {
      "inputs": [
        {
          "internalType": "address",
          "name": "owner",
          "type": "address"
        }
      ],
      "name": "OwnableInvalidOwner",
      "type": "error"
    },
    {
      "inputs": [
        {
          "internalType": "address",
          "name": "account",
          "type": "address"
        }
      ],
      "name": "OwnableUnauthorizedAccount",
      "type": "error"
    },
    {
      "anonymous": false,
      "inputs": [
        {
          "indexed": true,
          "internalType": "uint256",
          "name": "tipJarId",
          "type": "uint256"
        },
        {
          "indexed": true,
          "internalType": "uint256",
          "name": "tipId",
          "type": "uint256"
        },
        {
          "indexed": false,
          "internalType": "bytes32",
          "name": "encryptedSenderHash",
          "type": "bytes32"
        }
      ],
      "name": "GhostTipSent",
      "type": "event"
    },
    {
      "anonymous": false,
      "inputs": [
        {
          "indexed": true,
          "internalType": "address",
          "name": "previousOwner",
          "type": "address"
        },
        {
          "indexed": true,
          "internalType": "address",
          "name": "newOwner",
          "type": "address"
        }
      ],
      "name": "OwnershipTransferred",
      "type": "event"
    },
    {
      "anonymous": false,
      "inputs": [
        {
          "indexed": true,
          "internalType": "uint256",
          "name": "id",
          "type": "uint256"
        },
        {
          "indexed": true,
          "internalType": "address",
          "name": "creator",
          "type": "address"
        },
        {
          "indexed": false,
          "internalType": "string",
          "name": "title",
          "type": "string"
        },
        {
          "indexed": false,
          "internalType": "string",
          "name": "category",
          "type": "string"
        }
      ],
      "name": "TipJarCreated",
      "type": "event"
    },
    {
      "inputs": [
        {
          "internalType": "string",
          "name": "_title",
          "type": "string"
        },
        {
          "internalType": "string",
          "name": "_description",
          "type": "string"
        },
        {
          "internalType": "string",
          "name": "_category",
          "type": "string"
        }
      ],
      "name": "createTipJar",
      "outputs": [
        {
          "internalType": "uint256",
          "name": "",
          "type": "uint256"
        }
      ],
      "stateMutability": "nonpayable",
      "type": "function"
    },
    {
      "inputs": [
        {
          "internalType": "uint256",
          "name": "_tipJarId",
          "type": "uint256"
        }
      ],
      "name": "getEncryptedBalance",
      "outputs": [
        {
          "internalType": "euint64",
          "name": "",
          "type": "bytes32"
        }
      ],
      "stateMutability": "view",
      "type": "function"
    },
    {
      "inputs": [],
      "name": "getTipCount",
      "outputs": [
        {
          "internalType": "uint256",
          "name": "",
          "type": "uint256"
        }
      ],
      "stateMutability": "view",
      "type": "function"
    },
    {
      "inputs": [],
      "name": "getTipJarCount",
      "outputs": [
        {
          "internalType": "uint256",
          "name": "",
          "type": "uint256"
        }
      ],
      "stateMutability": "view",
      "type": "function"
    },
    {
      "inputs": [
        {
          "internalType": "address",
          "name": "_user",
          "type": "address"
        }
      ],
      "name": "getUserTipJars",
      "outputs": [
        {
          "internalType": "uint256[]",
          "name": "",
          "type": "uint256[]"
        }
      ],
      "stateMutability": "view",
      "type": "function"
    },
    {
      "inputs": [],
      "name": "owner",
      "outputs": [
        {
          "internalType": "address",
          "name": "",
          "type": "address"
        }
      ],
      "stateMutability": "view",
      "type": "function"
    },
    {
      "inputs": [],
      "name": "protocolId",
      "outputs": [
        {
          "internalType": "uint256",
          "name": "",
          "type": "uint256"
        }
      ],
      "stateMutability": "pure",
      "type": "function"
    },
    {
      "inputs": [],
      "name": "renounceOwnership",
      "outputs": [],
      "stateMutability": "nonpayable",
      "type": "function"
    },
    {
      "inputs": [
        {
          "internalType": "uint256",
          "name": "_tipJarId",
          "type": "uint256"
        },
        {
          "internalType": "externalEuint64",
          "name": "_encryptedAmount",
          "type": "bytes32"
        },
        {
          "internalType": "string",
          "name": "_encryptedMessage",
          "type": "string"
        },
        {
          "internalType": "bytes",
          "name": "inputProof",
          "type": "bytes"
        }
      ],
      "name": "sendGhostTip",
      "outputs": [],
      "stateMutability": "payable",
      "type": "function"
    },
    {
      "inputs": [
        {
          "internalType": "uint256",
          "name": "",
          "type": "uint256"
        }
      ],
      "name": "tipJars",
      "outputs": [
        {
          "internalType": "uint256",
          "name": "id",
          "type": "uint256"
        },
        {
          "internalType": "address",
          "name": "creator",
          "type": "address"
        },
        {
          "internalType": "string",
          "name": "title",
          "type": "string"
        },
        {
          "internalType": "string",
          "name": "description",
          "type": "string"
        },
        {
          "internalType": "string",
          "name": "category",
          "type": "string"
        },
        {
          "internalType": "euint64",
          "name": "encryptedBalance",
          "type": "bytes32"
        },
        {
          "internalType": "euint32",
          "name": "encryptedTipCount",
          "type": "bytes32"
        },
        {
          "internalType": "bool",
          "name": "isActive",
          "type": "bool"
        },
        {
          "internalType": "uint256",
          "name": "createdAt",
          "type": "uint256"
        }
      ],
      "stateMutability": "view",
      "type": "function"
    },
    {
      "inputs": [
        {
          "internalType": "uint256",
          "name": "",
          "type": "uint256"
        }
      ],
      "name": "tips",
      "outputs": [
        {
          "internalType": "uint256",
          "name": "tipJarId",
          "type": "uint256"
        },
        {
          "internalType": "eaddress",
          "name": "encryptedSender",
          "type": "bytes32"
        },
        {
          "internalType": "euint64",
          "name": "encryptedAmount",
          "type": "bytes32"
        },
        {
          "internalType": "string",
          "name": "encryptedMessage",
          "type": "string"
        },
        {
          "internalType": "bool",
          "name": "isClaimed",
          "type": "bool"
        },
        {
          "internalType": "uint256",
          "name": "createdAt",
          "type": "uint256"
        }
      ],
      "stateMutability": "view",
      "type": "function"
    },
    {
      "inputs": [
        {
          "internalType": "address",
          "name": "newOwner",
          "type": "address"
        }
      ],
      "name": "transferOwnership",
      "outputs": [],
      "stateMutability": "nonpayable",
      "type": "function"
    },
    {
      "inputs": [
        {
          "internalType": "address",
          "name": "",
          "type": "address"
        },
        {
          "internalType": "uint256",
          "name": "",
          "type": "uint256"
        }
      ],
      "name": "userTipJars",
      "outputs": [
        {
          "internalType": "uint256",
          "name": "",
          "type": "uint256"
        }
      ],
      "stateMutability": "view",
      "type": "function"
    }
  ],
  "transactionHash": "0x154d396fc5cd258a50adf53adec68f98e949783e0f11189880fdc47545ed2e2c",
  "args": [],
  "numDeployments": 1,
  "solcInputHash": "5de8396d8815819b7d8230417e290feb",
  "bytecode": "0x608060405234801561001057600080fd5b503361018d6100b1604080516080810182526000808252602082018190529181018290526060810191909152506040805160808101825273687820221192c5b662b25367f70076a37bc79b6c815273848b0066793bcc60346da1f49049357399b8d595602082015273a02cda4ca3a71d7c46997716f4283aa851c2881291810191909152731364cbbf2cdf5032c47d8226a6f6fbd2afcdacac606082015290565b80517f9e7b61f58c47dc699ac88507c4f5bb9f121c03808c5676a8078fe583e464970080546001600160a01b03199081166001600160a01b039384161790915560208301517f9e7b61f58c47dc699ac88507c4f5bb9f121c03808c5676a8078fe583e46497018054831691841691909117905560408301517f9e7b61f58c47dc699ac88507c4f5bb9f121c03808c5676a8078fe583e46497028054831691841691909117905560608301517f9e7b61f58c47dc699ac88507c4f5bb9f121c03808c5676a8078fe583e46497038054909216921691909117905550565b6001600160a01b0381166101bb57604051631e4fbdf760e01b81526000600482015260240160405180910390fd5b6101c4816101d4565b5060006001819055600255610224565b600080546001600160a01b038381166001600160a01b0319831681178455604051919092169283917f8be0079c531659141344cd1fd0a4f28419497f9722a3daafe3b4186f6b6457e09190a35050565b61159c806102336000396000f3fe6080604052600436106100d25760003560e01c8063a5c68c591161007f578063da1f12ab11610059578063da1f12ab14610227578063dbd5f81c1461023c578063e252d6791461025c578063f2fde38b1461026f57600080fd5b8063a5c68c59146101b5578063b8550298146101e7578063d8d7a4921461020757600080fd5b80638046c0c4116100b05780638046c0c41461014b5780638da5cb5b146101605780639aa89e951461018857600080fd5b8063146f41ad146100d7578063715018a6146101155780637dc1a64f1461012c575b600080fd5b3480156100e357600080fd5b506100f76100f2366004610fb4565b61028f565b60405161010c99989796959493929190611013565b60405180910390f35b34801561012157600080fd5b5061012a61047f565b005b34801561013857600080fd5b506002545b60405190815260200161010c565b34801561015757600080fd5b5060015461013d565b34801561016c57600080fd5b506000546040516001600160a01b03909116815260200161010c565b34801561019457600080fd5b506101a86101a33660046110aa565b610493565b60405161010c91906110c5565b3480156101c157600080fd5b506101d56101d0366004610fb4565b6104ff565b60405161010c96959493929190611109565b3480156101f357600080fd5b5061013d610202366004611143565b6105c2565b34801561021357600080fd5b5061013d610222366004610fb4565b6105f3565b34801561023357600080fd5b5061271161013d565b34801561024857600080fd5b5061013d610257366004611210565b610677565b61012a61026a366004611298565b6107b0565b34801561027b57600080fd5b5061012a61028a3660046110aa565b6109f6565b60036020526000908152604090208054600182015460028301805492936001600160a01b03909216926102c190611340565b80601f01602080910402602001604051908101604052809291908181526020018280546102ed90611340565b801561033a5780601f1061030f5761010080835404028352916020019161033a565b820191906000526020600020905b81548152906001019060200180831161031d57829003601f168201915b50505050509080600301805461034f90611340565b80601f016020809104026020016040519081016040528092919081815260200182805461037b90611340565b80156103c85780601f1061039d576101008083540402835291602001916103c8565b820191906000526020600020905b8154815290600101906020018083116103ab57829003601f168201915b5050505050908060040180546103dd90611340565b80601f016020809104026020016040519081016040528092919081815260200182805461040990611340565b80156104565780601f1061042b57610100808354040283529160200191610456565b820191906000526020600020905b81548152906001019060200180831161043957829003601f168201915b5050506005840154600685015460078601546008909601549495919490935060ff909116915089565b610487610a4d565b6104916000610a93565b565b6001600160a01b0381166000908152600560209081526040918290208054835181840281018401909452808452606093928301828280156104f357602002820191906000526020600020905b8154815260200190600101908083116104df575b50505050509050919050565b60046020526000908152604090208054600182015460028301546003840180549394929391929161052f90611340565b80601f016020809104026020016040519081016040528092919081815260200182805461055b90611340565b80156105a85780601f1061057d576101008083540402835291602001916105a8565b820191906000526020600020905b81548152906001019060200180831161058b57829003601f168201915b505050506004830154600590930154919260ff1691905086565b600560205281600052604060002081815481106105de57600080fd5b90600052602060002001600091509150505481565b6000818152600360205260408120600101546001600160a01b031633146106615760405162461bcd60e51b815260206004820152600e60248201527f4e6f7420617574686f72697a656400000000000000000000000000000000000060448201526064015b60405180910390fd5b5060009081526003602052604090206005015490565b60018054600091826106888361137a565b9091555050600180546000818152600360205260409020908155908101805473ffffffffffffffffffffffffffffffffffffffff191633179055600281016106d086826113f2565b50600381016106df85826113f2565b50600481016106ee84826113f2565b506106f96000610af0565b60058201556107086000610b0d565b600682015560078101805460ff19166001179055426008820155600581015461073090610b20565b5061073e8160060154610b20565b503360008181526005602090815260408083206001805482548083018455928652939094200191909155905490517fde278f97c23de7d062ed6d749dfbdb809f4420d0618d21c1c396fe35027b65059061079b90899088906114b2565b60405180910390a350506001545b9392505050565b60008581526003602052604090206007015460ff166108115760405162461bcd60e51b815260206004820152601560248201527f546970206a6172206973206e6f742061637469766500000000000000000000006044820152606401610658565b600034116108615760405162461bcd60e51b815260206004820152601660248201527f4d7573742073656e6420455448207769746820746970000000000000000000006044820152606401610658565b60006108a38584848080601f016020809104026020016040519081016040528093929190818152602001838380828437600092019190915250610b3092505050565b6002805491925060006108b58361137a565b909155505060025460009081526004602052604090208681556108d733610b3e565b600182015560028101829055600381016108f186826113f2565b5060048101805460ff19169055426005808301919091556000888152600360205260409020908101546109249084610b54565b600582015560068101546109419061093c6001610b0d565b610b86565b6006820155600581015461095490610b20565b506109628160060154610b20565b50600181015461097c9084906001600160a01b0316610ba9565b506002546040516bffffffffffffffffffffffff193360601b16602082015242603482015289907f746b3ec4b60cc03c853331bbb1566cca8337416f3a91bcda6ee5359d2f9299679060540160408051601f1981840301815290829052805160209182012082520160405180910390a35050505050505050565b6109fe610a4d565b6001600160a01b038116610a41576040517f1e4fbdf700000000000000000000000000000000000000000000000000000000815260006004820152602401610658565b610a4a81610a93565b50565b6000546001600160a01b03163314610491576040517f118cdaa7000000000000000000000000000000000000000000000000000000008152336004820152602401610658565b600080546001600160a01b0383811673ffffffffffffffffffffffffffffffffffffffff19831681178455604051919092169283917f8be0079c531659141344cd1fd0a4f28419497f9722a3daafe3b4186f6b6457e09190a35050565b6000610b078267ffffffffffffffff166005610bbc565b92915050565b6000610b078263ffffffff166004610bbc565b6000610b2c8230610c96565b5090565b60006107a983836005610d3e565b6000610b07826001600160a01b03166007610bbc565b600082610b6857610b656000610af0565b92505b81610b7a57610b776000610af0565b91505b6107a983836000610e99565b600082610b9a57610b976000610b0d565b92505b81610b7a57610b776000610b0d565b6000610bb58383610c96565b5090919050565b7f9e7b61f58c47dc699ac88507c4f5bb9f121c03808c5676a8078fe583e4649701546040517f9cd07acb0000000000000000000000000000000000000000000000000000000081526000917f9e7b61f58c47dc699ac88507c4f5bb9f121c03808c5676a8078fe583e4649700916001600160a01b0390911690639cd07acb90610c4b9087908790600401611502565b6020604051808303816000875af1158015610c6a573d6000803e3d6000fd5b505050506040513d601f19601f82011682018060405250810190610c8e9190611516565b949350505050565b60007f9e7b61f58c47dc699ac88507c4f5bb9f121c03808c5676a8078fe583e464970080546040517fb9496b62000000000000000000000000000000000000000000000000000000008152600481018690526001600160a01b03858116602483015292935091169063b9496b6290604401600060405180830381600087803b158015610d2157600080fd5b505af1158015610d35573d6000803e3d6000fd5b50505050505050565b7f9e7b61f58c47dc699ac88507c4f5bb9f121c03808c5676a8078fe583e4649701546040517f196d0b9b0000000000000000000000000000000000000000000000000000000081526000917f9e7b61f58c47dc699ac88507c4f5bb9f121c03808c5676a8078fe583e4649700916001600160a01b039091169063196d0b9b90610dd190889033908990899060040161152f565b6020604051808303816000875af1158015610df0573d6000803e3d6000fd5b505050506040513d601f19601f82011682018060405250810190610e149190611516565b81546040517f3e395cec000000000000000000000000000000000000000000000000000000008152600481018390523360248201529193506001600160a01b031690633e395cec90604401600060405180830381600087803b158015610e7957600080fd5b505af1158015610e8d573d6000803e3d6000fd5b50505050509392505050565b6000808215610ec957507f0100000000000000000000000000000000000000000000000000000000000000610ecd565b5060005b60007f9e7b61f58c47dc699ac88507c4f5bb9f121c03808c5676a8078fe583e464970060018101546040517f117b2f3800000000000000000000000000000000000000000000000000000000815260048101899052602481018890527fff00000000000000000000000000000000000000000000000000000000000000851660448201529192506001600160a01b03169063117b2f38906064016020604051808303816000875af1158015610f86573d6000803e3d6000fd5b505050506040513d601f19601f82011682018060405250810190610faa9190611516565b9695505050505050565b600060208284031215610fc657600080fd5b5035919050565b6000815180845260005b81811015610ff357602081850181015186830182015201610fd7565b506000602082860101526020601f19601f83011685010191505092915050565b60006101208b83526001600160a01b038b16602084015280604084015261103c8184018b610fcd565b90508281036060840152611050818a610fcd565b905082810360808401526110648189610fcd565b60a0840197909752505060c081019390935290151560e08301526101009091015295945050505050565b80356001600160a01b03811681146110a557600080fd5b919050565b6000602082840312156110bc57600080fd5b6107a98261108e565b6020808252825182820181905260009190848201906040850190845b818110156110fd578351835292840192918401916001016110e1565b50909695505050505050565b86815285602082015284604082015260c06060820152600061112e60c0830186610fcd565b93151560808301525060a00152949350505050565b6000806040838503121561115657600080fd5b61115f8361108e565b946020939093013593505050565b634e487b7160e01b600052604160045260246000fd5b600082601f83011261119457600080fd5b813567ffffffffffffffff808211156111af576111af61116d565b604051601f8301601f19908116603f011681019082821181831017156111d7576111d761116d565b816040528381528660208588010111156111f057600080fd5b836020870160208301376000602085830101528094505050505092915050565b60008060006060848603121561122557600080fd5b833567ffffffffffffffff8082111561123d57600080fd5b61124987838801611183565b9450602086013591508082111561125f57600080fd5b61126b87838801611183565b9350604086013591508082111561128157600080fd5b5061128e86828701611183565b9150509250925092565b6000806000806000608086880312156112b057600080fd5b8535945060208601359350604086013567ffffffffffffffff808211156112d657600080fd5b6112e289838a01611183565b945060608801359150808211156112f857600080fd5b818801915088601f83011261130c57600080fd5b81358181111561131b57600080fd5b89602082850101111561132d57600080fd5b9699959850939650602001949392505050565b600181811c9082168061135457607f821691505b60208210810361137457634e487b7160e01b600052602260045260246000fd5b50919050565b60006001820161139a57634e487b7160e01b600052601160045260246000fd5b5060010190565b601f8211156113ed576000816000526020600020601f850160051c810160208610156113ca5750805b601f850160051c820191505b818110156113e9578281556001016113d6565b5050505b505050565b815167ffffffffffffffff81111561140c5761140c61116d565b6114208161141a8454611340565b846113a1565b602080601f831160018114611455576000841561143d5750858301515b600019600386901b1c1916600185901b1785556113e9565b600085815260208120601f198616915b8281101561148457888601518255948401946001909101908401611465565b50858210156114a25787850151600019600388901b60f8161c191681555b5050505050600190811b01905550565b6040815260006114c56040830185610fcd565b82810360208401526114d78185610fcd565b95945050505050565b605481106114fe57634e487b7160e01b600052602160045260246000fd5b9052565b828152604081016107a960208301846114e0565b60006020828403121561152857600080fd5b5051919050565b8481526001600160a01b03841660208201526080604082015260006115576080830185610fcd565b90506114d760608301846114e056fea26469706673582212209d07e80f507de002eed24f99fe68f9cb0bdfa86d99402920c150c7cef44666fe64736f6c63430008180033",
  "devdoc": {
    "author": "ZAMA Developer Program Participant",
    "details": "A privacy-preserving tipping system using FHEVM",
    "errors": {
      "OwnableInvalidOwner(address)": [
        {
          "details": "The owner is not a valid owner account. (eg. `address(0)`)"
        }
      ],
      "OwnableUnauthorizedAccount(address)": [
        {
          "details": "The caller account is not authorized to perform an operation."
        }
      ]
    },
    "kind": "dev",
    "methods": {
      "createTipJar(string,string,string)": {
        "details": "Create a new tip jar for receiving anonymous tips"
      },
      "getEncryptedBalance(uint256)": {
        "details": "Get encrypted balance (only for jar creator)"
      },
      "getTipCount()": {
        "details": "Get tip count"
      },
      "getTipJarCount()": {
        "details": "Get tip jar count"
      },
      "getUserTipJars(address)": {
        "details": "Get user's tip jars"
      },
      "owner()": {
        "details": "Returns the address of the current owner."
      },
      "renounceOwnership()": {
        "details": "Leaves the contract without owner. It will not be possible to call `onlyOwner` functions. Can only be called by the current owner. NOTE: Renouncing ownership will leave the contract without an owner, thereby disabling any functionality that is only available to the owner."
      },
      "sendGhostTip(uint256,bytes32,string,bytes)": {
        "details": "Send an anonymous tip to a tip jar",
        "params": {
          "_encryptedAmount": "Encrypted tip amount (externalEuint64)",
          "_encryptedMessage": "Optional encrypted message",
          "_tipJarId": "ID of the tip jar",
          "inputProof": "Zero-knowledge proof for input validation"
        }
      },
      "transferOwnership(address)": {
        "details": "Transfers ownership of the contract to a new account (`newOwner`). Can only be called by the current owner."
      }
    },
    "title": "GhostTips - Private Tipping & Microgrants Platform",
    "version": 1
  },
  "userdoc": {
    "kind": "user",
    "methods": {},
    "version": 1
  },
  "storageLayout": {
    "storage": [
      {
        "astId": 39029,
        "contract": "contracts/GhostTips.sol:GhostTips",
        "label": "_owner",
        "offset": 0,
        "slot": "0",
        "type": "t_address"
      },
      {
        "astId": 39367,
        "contract": "contracts/GhostTips.sol:GhostTips",
        "label": "tipJarCounter",
        "offset": 0,
        "slot": "1",
        "type": "t_uint256"
      },
      {
        "astId": 39369,
        "contract": "contracts/GhostTips.sol:GhostTips",
        "label": "tipCounter",
        "offset": 0,
        "slot": "2",
        "type": "t_uint256"
      },
      {
        "astId": 39374,
        "contract": "contracts/GhostTips.sol:GhostTips",
        "label": "tipJars",
        "offset": 0,
        "slot": "3",
        "type": "t_mapping(t_uint256,t_struct(TipJar)39350_storage)"
      },
      {
        "astId": 39379,
        "contract": "contracts/GhostTips.sol:GhostTips",
        "label": "tips",
        "offset": 0,
        "slot": "4",
        "type": "t_mapping(t_uint256,t_struct(EncryptedTip)39365_storage)"
      },
      {
        "astId": 39384,
        "contract": "contracts/GhostTips.sol:GhostTips",
        "label": "userTipJars",
        "offset": 0,
        "slot": "5",
        "type": "t_mapping(t_address,t_array(t_uint256)dyn_storage)"
      }
    ],
    "types": {
      "t_address": {
        "encoding": "inplace",
        "label": "address",
        "numberOfBytes": "20"
      },
      "t_array(t_uint256)dyn_storage": {
        "base": "t_uint256",
        "encoding": "dynamic_array",
        "label": "uint256[]",
        "numberOfBytes": "32"
      },
      "t_bool": {
        "encoding": "inplace",
        "label": "bool",
        "numberOfBytes": "1"
      },
      "t_mapping(t_address,t_array(t_uint256)dyn_storage)": {
        "encoding": "mapping",
        "key": "t_address",
        "label": "mapping(address => uint256[])",
        "numberOfBytes": "32",
        "value": "t_array(t_uint256)dyn_storage"
      },
      "t_mapping(t_uint256,t_struct(EncryptedTip)39365_storage)": {
        "encoding": "mapping",
        "key": "t_uint256",
        "label": "mapping(uint256 => struct GhostTips.EncryptedTip)",
        "numberOfBytes": "32",
        "value": "t_struct(EncryptedTip)39365_storage"
      },
      "t_mapping(t_uint256,t_struct(TipJar)39350_storage)": {
        "encoding": "mapping",
        "key": "t_uint256",
        "label": "mapping(uint256 => struct GhostTips.TipJar)",
        "numberOfBytes": "32",
        "value": "t_struct(TipJar)39350_storage"
      },
      "t_string_storage": {
        "encoding": "bytes",
        "label": "string",
        "numberOfBytes": "32"
      },
      "t_struct(EncryptedTip)39365_storage": {
        "encoding": "inplace",
        "label": "struct GhostTips.EncryptedTip",
        "members": [
          {
            "astId": 39352,
            "contract": "contracts/GhostTips.sol:GhostTips",
            "label": "tipJarId",
            "offset": 0,
            "slot": "0",
            "type": "t_uint256"
          },
          {
            "astId": 39355,
            "contract": "contracts/GhostTips.sol:GhostTips",
            "label": "encryptedSender",
            "offset": 0,
            "slot": "1",
            "type": "t_userDefinedValueType(eaddress)40134"
          },
          {
            "astId": 39358,
            "contract": "contracts/GhostTips.sol:GhostTips",
            "label": "encryptedAmount",
            "offset": 0,
            "slot": "2",
            "type": "t_userDefinedValueType(euint64)40020"
          },
          {
            "astId": 39360,
            "contract": "contracts/GhostTips.sol:GhostTips",
            "label": "encryptedMessage",
            "offset": 0,
            "slot": "3",
            "type": "t_string_storage"
          },
          {
            "astId": 39362,
            "contract": "contracts/GhostTips.sol:GhostTips",
            "label": "isClaimed",
            "offset": 0,
            "slot": "4",
            "type": "t_bool"
          },
          {
            "astId": 39364,
            "contract": "contracts/GhostTips.sol:GhostTips",
            "label": "createdAt",
            "offset": 0,
            "slot": "5",
            "type": "t_uint256"
          }
        ],
        "numberOfBytes": "192"
      },
      "t_struct(TipJar)39350_storage": {
        "encoding": "inplace",
        "label": "struct GhostTips.TipJar",
        "members": [
          {
            "astId": 39331,
            "contract": "contracts/GhostTips.sol:GhostTips",
            "label": "id",
            "offset": 0,
            "slot": "0",
            "type": "t_uint256"
          },
          {
            "astId": 39333,
            "contract": "contracts/GhostTips.sol:GhostTips",
            "label": "creator",
            "offset": 0,
            "slot": "1",
            "type": "t_address"
          },
          {
            "astId": 39335,
            "contract": "contracts/GhostTips.sol:GhostTips",
            "label": "title",
            "offset": 0,
            "slot": "2",
            "type": "t_string_storage"
          },
          {
            "astId": 39337,
            "contract": "contracts/GhostTips.sol:GhostTips",
            "label": "description",
            "offset": 0,
            "slot": "3",
            "type": "t_string_storage"
          },
          {
            "astId": 39339,
            "contract": "contracts/GhostTips.sol:GhostTips",
            "label": "category",
            "offset": 0,
            "slot": "4",
            "type": "t_string_storage"
          },
          {
            "astId": 39342,
            "contract": "contracts/GhostTips.sol:GhostTips",
            "label": "encryptedBalance",
            "offset": 0,
            "slot": "5",
            "type": "t_userDefinedValueType(euint64)40020"
          },
          {
            "astId": 39345,
            "contract": "contracts/GhostTips.sol:GhostTips",
            "label": "encryptedTipCount",
            "offset": 0,
            "slot": "6",
            "type": "t_userDefinedValueType(euint32)40012"
          },
          {
            "astId": 39347,
            "contract": "contracts/GhostTips.sol:GhostTips",
            "label": "isActive",
            "offset": 0,
            "slot": "7",
            "type": "t_bool"
          },
          {
            "astId": 39349,
            "contract": "contracts/GhostTips.sol:GhostTips",
            "label": "createdAt",
            "offset": 0,
            "slot": "8",
            "type": "t_uint256"
          }
        ],
        "numberOfBytes": "288"
      },
      "t_uint256": {
        "encoding": "inplace",
        "label": "uint256",
        "numberOfBytes": "32"
      },
      "t_userDefinedValueType(eaddress)40134": {
        "encoding": "inplace",
        "label": "eaddress",
        "numberOfBytes": "32"
      },
      "t_userDefinedValueType(euint32)40012": {
        "encoding": "inplace",
        "label": "euint32",
        "numberOfBytes": "32"
      },
      "t_userDefinedValueType(euint64)40020": {
        "encoding": "inplace",
        "label": "euint64",
        "numberOfBytes": "32"
      }
    }
  }
}