{
  "_format": "hh-sol-artifact-1",
  "contractName": "GhostTipsSimple",
  "sourceName": "contracts/GhostTipsSimple.sol",
  "abi": [
    {
      "inputs": [],
      "stateMutability": "nonpayable",
      "type": "constructor"
    },
    {
      "inputs": [
        {
          "internalType": "address",
          "name": "owner",
          "type": "address"
        }
      ],
      "name": "OwnableInvalidOwner",
      "type": "error"
    },
    {
      "inputs": [
        {
          "internalType": "address",
          "name": "account",
          "type": "address"
        }
      ],
      "name": "OwnableUnauthorizedAccount",
      "type": "error"
    },
    {
      "anonymous": false,
      "inputs": [
        {
          "indexed": true,
          "internalType": "address",
          "name": "previousOwner",
          "type": "address"
        },
        {
          "indexed": true,
          "internalType": "address",
          "name": "newOwner",
          "type": "address"
        }
      ],
      "name": "OwnershipTransferred",
      "type": "event"
    },
    {
      "anonymous": false,
      "inputs": [
        {
          "indexed": true,
          "internalType": "uint256",
          "name": "id",
          "type": "uint256"
        },
        {
          "indexed": true,
          "internalType": "address",
          "name": "creator",
          "type": "address"
        },
        {
          "indexed": false,
          "internalType": "string",
          "name": "title",
          "type": "string"
        }
      ],
      "name": "TipJarCreated",
      "type": "event"
    },
    {
      "anonymous": false,
      "inputs": [
        {
          "indexed": true,
          "internalType": "uint256",
          "name": "tipJarId",
          "type": "uint256"
        },
        {
          "indexed": false,
          "internalType": "uint256",
          "name": "amount",
          "type": "uint256"
        },
        {
          "indexed": false,
          "internalType": "uint256",
          "name": "tipId",
          "type": "uint256"
        }
      ],
      "name": "TipReceived",
      "type": "event"
    },
    {
      "inputs": [
        {
          "internalType": "string",
          "name": "_title",
          "type": "string"
        },
        {
          "internalType": "string",
          "name": "_description",
          "type": "string"
        },
        {
          "internalType": "string",
          "name": "_category",
          "type": "string"
        }
      ],
      "name": "createTipJar",
      "outputs": [
        {
          "internalType": "uint256",
          "name": "",
          "type": "uint256"
        }
      ],
      "stateMutability": "nonpayable",
      "type": "function"
    },
    {
      "inputs": [
        {
          "internalType": "uint256",
          "name": "_tipJarId",
          "type": "uint256"
        }
      ],
      "name": "deactivateTipJar",
      "outputs": [],
      "stateMutability": "nonpayable",
      "type": "function"
    },
    {
      "inputs": [],
      "name": "getTipJarCount",
      "outputs": [
        {
          "internalType": "uint256",
          "name": "",
          "type": "uint256"
        }
      ],
      "stateMutability": "view",
      "type": "function"
    },
    {
      "inputs": [
        {
          "internalType": "address",
          "name": "_user",
          "type": "address"
        }
      ],
      "name": "getUserTipJars",
      "outputs": [
        {
          "internalType": "uint256[]",
          "name": "",
          "type": "uint256[]"
        }
      ],
      "stateMutability": "view",
      "type": "function"
    },
    {
      "inputs": [],
      "name": "owner",
      "outputs": [
        {
          "internalType": "address",
          "name": "",
          "type": "address"
        }
      ],
      "stateMutability": "view",
      "type": "function"
    },
    {
      "inputs": [],
      "name": "renounceOwnership",
      "outputs": [],
      "stateMutability": "nonpayable",
      "type": "function"
    },
    {
      "inputs": [
        {
          "internalType": "uint256",
          "name": "_tipJarId",
          "type": "uint256"
        },
        {
          "internalType": "string",
          "name": "_message",
          "type": "string"
        }
      ],
      "name": "sendTip",
      "outputs": [],
      "stateMutability": "payable",
      "type": "function"
    },
    {
      "inputs": [],
      "name": "tipCount",
      "outputs": [
        {
          "internalType": "uint256",
          "name": "",
          "type": "uint256"
        }
      ],
      "stateMutability": "view",
      "type": "function"
    },
    {
      "inputs": [],
      "name": "tipJarCount",
      "outputs": [
        {
          "internalType": "uint256",
          "name": "",
          "type": "uint256"
        }
      ],
      "stateMutability": "view",
      "type": "function"
    },
    {
      "inputs": [
        {
          "internalType": "uint256",
          "name": "",
          "type": "uint256"
        }
      ],
      "name": "tipJars",
      "outputs": [
        {
          "internalType": "uint256",
          "name": "id",
          "type": "uint256"
        },
        {
          "internalType": "address",
          "name": "creator",
          "type": "address"
        },
        {
          "internalType": "string",
          "name": "title",
          "type": "string"
        },
        {
          "internalType": "string",
          "name": "description",
          "type": "string"
        },
        {
          "internalType": "string",
          "name": "category",
          "type": "string"
        },
        {
          "internalType": "uint256",
          "name": "totalReceived",
          "type": "uint256"
        },
        {
          "internalType": "uint256",
          "name": "tipCount",
          "type": "uint256"
        },
        {
          "internalType": "bool",
          "name": "isActive",
          "type": "bool"
        },
        {
          "internalType": "uint256",
          "name": "createdAt",
          "type": "uint256"
        }
      ],
      "stateMutability": "view",
      "type": "function"
    },
    {
      "inputs": [
        {
          "internalType": "uint256",
          "name": "",
          "type": "uint256"
        }
      ],
      "name": "tips",
      "outputs": [
        {
          "internalType": "uint256",
          "name": "tipJarId",
          "type": "uint256"
        },
        {
          "internalType": "uint256",
          "name": "amount",
          "type": "uint256"
        },
        {
          "internalType": "uint256",
          "name": "timestamp",
          "type": "uint256"
        },
        {
          "internalType": "string",
          "name": "message",
          "type": "string"
        },
        {
          "internalType": "bool",
          "name": "isAnonymous",
          "type": "bool"
        }
      ],
      "stateMutability": "view",
      "type": "function"
    },
    {
      "inputs": [
        {
          "internalType": "address",
          "name": "newOwner",
          "type": "address"
        }
      ],
      "name": "transferOwnership",
      "outputs": [],
      "stateMutability": "nonpayable",
      "type": "function"
    },
    {
      "inputs": [
        {
          "internalType": "address",
          "name": "",
          "type": "address"
        },
        {
          "internalType": "uint256",
          "name": "",
          "type": "uint256"
        }
      ],
      "name": "userTipJars",
      "outputs": [
        {
          "internalType": "uint256",
          "name": "",
          "type": "uint256"
        }
      ],
      "stateMutability": "view",
      "type": "function"
    }
  ],
  "bytecode": "0x608060405234801561001057600080fd5b50338061003757604051631e4fbdf760e01b81526000600482015260240160405180910390fd5b61004081610046565b50610096565b600080546001600160a01b038381166001600160a01b0319831681178455604051919092169283917f8be0079c531659141344cd1fd0a4f28419497f9722a3daafe3b4186f6b6457e09190a35050565b61103b806100a56000396000f3fe6080604052600436106100d25760003560e01c8063a5c68c591161007f578063e31e9c9011610059578063e31e9c901461022b578063ecf0d74d14610241578063f2fde38b14610254578063fdd006751461027457600080fd5b8063a5c68c59146101ba578063b8550298146101eb578063dbd5f81c1461020b57600080fd5b80638046c0c4116100b05780638046c0c4146101505780638da5cb5b146101655780639aa89e951461018d57600080fd5b8063146f41ad146100d7578063189ac69f14610115578063715018a614610139575b600080fd5b3480156100e357600080fd5b506100f76100f2366004610b2e565b610294565b60405161010c99989796959493929190610b8d565b60405180910390f35b34801561012157600080fd5b5061012b60015481565b60405190815260200161010c565b34801561014557600080fd5b5061014e610484565b005b34801561015c57600080fd5b5060015461012b565b34801561017157600080fd5b506000546040516001600160a01b03909116815260200161010c565b34801561019957600080fd5b506101ad6101a8366004610c24565b610498565b60405161010c9190610c46565b3480156101c657600080fd5b506101da6101d5366004610b2e565b610504565b60405161010c959493929190610c8a565b3480156101f757600080fd5b5061012b610206366004610cc3565b6105c0565b34801561021757600080fd5b5061012b610226366004610d90565b6105f1565b34801561023757600080fd5b5061012b60025481565b61014e61024f366004610e18565b61077d565b34801561026057600080fd5b5061014e61026f366004610c24565b6109b0565b34801561028057600080fd5b5061014e61028f366004610b2e565b610a07565b60036020526000908152604090208054600182015460028301805492936001600160a01b03909216926102c690610e5f565b80601f01602080910402602001604051908101604052809291908181526020018280546102f290610e5f565b801561033f5780601f106103145761010080835404028352916020019161033f565b820191906000526020600020905b81548152906001019060200180831161032257829003601f168201915b50505050509080600301805461035490610e5f565b80601f016020809104026020016040519081016040528092919081815260200182805461038090610e5f565b80156103cd5780601f106103a2576101008083540402835291602001916103cd565b820191906000526020600020905b8154815290600101906020018083116103b057829003601f168201915b5050505050908060040180546103e290610e5f565b80601f016020809104026020016040519081016040528092919081815260200182805461040e90610e5f565b801561045b5780601f106104305761010080835404028352916020019161045b565b820191906000526020600020905b81548152906001019060200180831161043e57829003601f168201915b5050506005840154600685015460078601546008909601549495919490935060ff909116915089565b61048c610a8b565b6104966000610ad1565b565b6001600160a01b0381166000908152600560209081526040918290208054835181840281018401909452808452606093928301828280156104f857602002820191906000526020600020905b8154815260200190600101908083116104e4575b50505050509050919050565b60046020526000908152604090208054600182015460028301546003840180549394929391929161053490610e5f565b80601f016020809104026020016040519081016040528092919081815260200182805461056090610e5f565b80156105ad5780601f10610582576101008083540402835291602001916105ad565b820191906000526020600020905b81548152906001019060200180831161059057829003601f168201915b5050506004909301549192505060ff1685565b600560205281600052604060002081815481106105dc57600080fd5b90600052602060002001600091509150505481565b600180546000918261060283610eaf565b90915550506040805161012081018252600180548083523360208085019182528486018a8152606086018a905260808601899052600060a0870181905260c0870181905260e0870186905242610100880152938452600390915294909120835181559051918101805473ffffffffffffffffffffffffffffffffffffffff19166001600160a01b0390931692909217909155915190919060028201906106a89082610f19565b50606082015160038201906106bd9082610f19565b50608082015160048201906106d29082610f19565b5060a082015160058281019190915560c0830151600683015560e083015160078301805460ff1916911515919091179055610100909201516008909101553360008181526020928352604080822060018054825480830184559285529590932001939093555491519091907f46ad877947ee35a89ab5da06b8bee30efc3cb9a99b0c147f91100fdbe934d0b69061076a908890610fd9565b60405180910390a3506001549392505050565b60008281526003602052604090206007015460ff166107e35760405162461bcd60e51b815260206004820152601560248201527f546970206a6172206973206e6f7420616374697665000000000000000000000060448201526064015b60405180910390fd5b600034116108335760405162461bcd60e51b815260206004820152601660248201527f4d7573742073656e64204554482077697468207469700000000000000000000060448201526064016107da565b6002805490600061084383610eaf565b91905055506040518060a001604052808381526020013481526020014281526020018281526020016001151581525060046000600254815260200190815260200160002060008201518160000155602082015181600101556040820151816002015560608201518160030190816108ba9190610f19565b50608091909101516004909101805460ff1916911515919091179055600082815260036020526040812060050180543492906108f7908490610fec565b9091555050600082815260036020526040812060060180549161091983610eaf565b90915550506000828152600360205260408082206001015490516001600160a01b03909116913480156108fc02929091818181858888f19350505050158015610966573d6000803e3d6000fd5b50817ffc398796376bd206be52649cf417c4599ee247034bce2469acc5636843ee035f346002546040516109a4929190918252602082015260400190565b60405180910390a25050565b6109b8610a8b565b6001600160a01b0381166109fb576040517f1e4fbdf7000000000000000000000000000000000000000000000000000000008152600060048201526024016107da565b610a0481610ad1565b50565b6000818152600360205260409020600101546001600160a01b03163314610a705760405162461bcd60e51b815260206004820152600e60248201527f4e6f7420617574686f72697a656400000000000000000000000000000000000060448201526064016107da565b6000908152600360205260409020600701805460ff19169055565b6000546001600160a01b03163314610496576040517f118cdaa70000000000000000000000000000000000000000000000000000000081523360048201526024016107da565b600080546001600160a01b0383811673ffffffffffffffffffffffffffffffffffffffff19831681178455604051919092169283917f8be0079c531659141344cd1fd0a4f28419497f9722a3daafe3b4186f6b6457e09190a35050565b600060208284031215610b4057600080fd5b5035919050565b6000815180845260005b81811015610b6d57602081850181015186830182015201610b51565b506000602082860101526020601f19601f83011685010191505092915050565b60006101208b83526001600160a01b038b166020840152806040840152610bb68184018b610b47565b90508281036060840152610bca818a610b47565b90508281036080840152610bde8189610b47565b60a0840197909752505060c081019390935290151560e08301526101009091015295945050505050565b80356001600160a01b0381168114610c1f57600080fd5b919050565b600060208284031215610c3657600080fd5b610c3f82610c08565b9392505050565b6020808252825182820181905260009190848201906040850190845b81811015610c7e57835183529284019291840191600101610c62565b50909695505050505050565b85815284602082015283604082015260a060608201526000610caf60a0830185610b47565b905082151560808301529695505050505050565b60008060408385031215610cd657600080fd5b610cdf83610c08565b946020939093013593505050565b634e487b7160e01b600052604160045260246000fd5b600082601f830112610d1457600080fd5b813567ffffffffffffffff80821115610d2f57610d2f610ced565b604051601f8301601f19908116603f01168101908282118183101715610d5757610d57610ced565b81604052838152866020858801011115610d7057600080fd5b836020870160208301376000602085830101528094505050505092915050565b600080600060608486031215610da557600080fd5b833567ffffffffffffffff80821115610dbd57600080fd5b610dc987838801610d03565b94506020860135915080821115610ddf57600080fd5b610deb87838801610d03565b93506040860135915080821115610e0157600080fd5b50610e0e86828701610d03565b9150509250925092565b60008060408385031215610e2b57600080fd5b82359150602083013567ffffffffffffffff811115610e4957600080fd5b610e5585828601610d03565b9150509250929050565b600181811c90821680610e7357607f821691505b602082108103610e9357634e487b7160e01b600052602260045260246000fd5b50919050565b634e487b7160e01b600052601160045260246000fd5b600060018201610ec157610ec1610e99565b5060010190565b601f821115610f14576000816000526020600020601f850160051c81016020861015610ef15750805b601f850160051c820191505b81811015610f1057828155600101610efd565b5050505b505050565b815167ffffffffffffffff811115610f3357610f33610ced565b610f4781610f418454610e5f565b84610ec8565b602080601f831160018114610f7c5760008415610f645750858301515b600019600386901b1c1916600185901b178555610f10565b600085815260208120601f198616915b82811015610fab57888601518255948401946001909101908401610f8c565b5085821015610fc95787850151600019600388901b60f8161c191681555b5050505050600190811b01905550565b602081526000610c3f6020830184610b47565b80820180821115610fff57610fff610e99565b9291505056fea2646970667358221220c8c87204ee888a6e953c97c145f3e496c9df4c4bb2fe0f6fe75dad04a39fee2b64736f6c63430008180033",
  "linkReferences": {},
  "deployedLinkReferences": {}
}