{
  "_format": "hh-sol-artifact-1",
  "contractName": "GhostToken",
  "sourceName": "contracts/GhostToken.sol",
  "abi": [
    {
      "inputs": [],
      "stateMutability": "nonpayable",
      "type": "constructor"
    },
    {
      "anonymous": false,
      "inputs": [
        {
          "indexed": true,
          "internalType": "address",
          "name": "user",
          "type": "address"
        },
        {
          "indexed": false,
          "internalType": "uint256",
          "name": "amount",
          "type": "uint256"
        }
      ],
      "name": "Deposit",
      "type": "event"
    },
    {
      "anonymous": false,
      "inputs": [
        {
          "indexed": true,
          "internalType": "address",
          "name": "from",
          "type": "address"
        },
        {
          "indexed": true,
          "internalType": "address",
          "name": "to",
          "type": "address"
        },
        {
          "indexed": false,
          "internalType": "ebool",
          "name": "success",
          "type": "bytes32"
        }
      ],
      "name": "Transfer",
      "type": "event"
    },
    {
      "anonymous": false,
      "inputs": [
        {
          "indexed": true,
          "internalType": "address",
          "name": "user",
          "type": "address"
        },
        {
          "indexed": false,
          "internalType": "uint256",
          "name": "amount",
          "type": "uint256"
        },
        {
          "indexed": false,
          "internalType": "ebool",
          "name": "success",
          "type": "bytes32"
        }
      ],
      "name": "Withdrawal",
      "type": "event"
    },
    {
      "inputs": [
        {
          "internalType": "address",
          "name": "account",
          "type": "address"
        }
      ],
      "name": "balanceOf",
      "outputs": [
        {
          "internalType": "euint64",
          "name": "",
          "type": "bytes32"
        }
      ],
      "stateMutability": "view",
      "type": "function"
    },
    {
      "inputs": [],
      "name": "decimals",
      "outputs": [
        {
          "internalType": "uint8",
          "name": "",
          "type": "uint8"
        }
      ],
      "stateMutability": "view",
      "type": "function"
    },
    {
      "inputs": [],
      "name": "deposit",
      "outputs": [],
      "stateMutability": "payable",
      "type": "function"
    },
    {
      "inputs": [],
      "name": "name",
      "outputs": [
        {
          "internalType": "string",
          "name": "",
          "type": "string"
        }
      ],
      "stateMutability": "view",
      "type": "function"
    },
    {
      "inputs": [],
      "name": "protocolId",
      "outputs": [
        {
          "internalType": "uint256",
          "name": "",
          "type": "uint256"
        }
      ],
      "stateMutability": "pure",
      "type": "function"
    },
    {
      "inputs": [],
      "name": "symbol",
      "outputs": [
        {
          "internalType": "string",
          "name": "",
          "type": "string"
        }
      ],
      "stateMutability": "view",
      "type": "function"
    },
    {
      "inputs": [
        {
          "internalType": "address",
          "name": "to",
          "type": "address"
        },
        {
          "internalType": "uint64",
          "name": "amount",
          "type": "uint64"
        }
      ],
      "name": "transfer",
      "outputs": [
        {
          "internalType": "bool",
          "name": "",
          "type": "bool"
        }
      ],
      "stateMutability": "nonpayable",
      "type": "function"
    },
    {
      "inputs": [
        {
          "internalType": "uint64",
          "name": "tokenAmount",
          "type": "uint64"
        }
      ],
      "name": "withdraw",
      "outputs": [],
      "stateMutability": "nonpayable",
      "type": "function"
    },
    {
      "stateMutability": "payable",
      "type": "receive"
    }
  ],
  "bytecode": "0x60c0604052600b60809081526a23b437b9ba102a37b5b2b760a91b60a0526000906200002c90826200029e565b5060408051808201909152600581526411d213d4d560da1b60208201526001906200005890826200029e565b506002805460ff191660121790553480156200007357600080fd5b50620001f162000115604080516080810182526000808252602082018190529181018290526060810191909152506040805160808101825273687820221192c5b662b25367f70076a37bc79b6c815273848b0066793bcc60346da1f49049357399b8d595602082015273a02cda4ca3a71d7c46997716f4283aa851c2881291810191909152731364cbbf2cdf5032c47d8226a6f6fbd2afcdacac606082015290565b80517f9e7b61f58c47dc699ac88507c4f5bb9f121c03808c5676a8078fe583e464970080546001600160a01b03199081166001600160a01b039384161790915560208301517f9e7b61f58c47dc699ac88507c4f5bb9f121c03808c5676a8078fe583e46497018054831691841691909117905560408301517f9e7b61f58c47dc699ac88507c4f5bb9f121c03808c5676a8078fe583e46497028054831691841691909117905560608301517f9e7b61f58c47dc699ac88507c4f5bb9f121c03808c5676a8078fe583e46497038054909216921691909117905550565b6200036a565b634e487b7160e01b600052604160045260246000fd5b600181811c908216806200022257607f821691505b6020821081036200024357634e487b7160e01b600052602260045260246000fd5b50919050565b601f82111562000299576000816000526020600020601f850160051c81016020861015620002745750805b601f850160051c820191505b81811015620002955782815560010162000280565b5050505b505050565b81516001600160401b03811115620002ba57620002ba620001f7565b620002d281620002cb84546200020d565b8462000249565b602080601f8311600181146200030a5760008415620002f15750858301515b600019600386901b1c1916600185901b17855562000295565b600085815260208120601f198616915b828110156200033b578886015182559484019460019091019084016200031a565b50858210156200035a5787850151600019600388901b60f8161c191681555b5050505050600190811b01905550565b610edd806200037a6000396000f3fe60806040526004361061007f5760003560e01c8063750f0acc1161004e578063750f0acc1461015657806395d89b4114610178578063d0e30db01461018d578063da1f12ab1461019557600080fd5b806306fdde031461008b578063313ce567146100b65780635d359fbd146100e257806370a082311461011257600080fd5b3661008657005b600080fd5b34801561009757600080fd5b506100a06101aa565b6040516100ad9190610cef565b60405180910390f35b3480156100c257600080fd5b506002546100d09060ff1681565b60405160ff90911681526020016100ad565b3480156100ee57600080fd5b506101026100fd366004610d72565b610238565b60405190151581526020016100ad565b34801561011e57600080fd5b5061014861012d366004610da5565b6001600160a01b031660009081526003602052604090205490565b6040519081526020016100ad565b34801561016257600080fd5b50610176610171366004610dc0565b610426565b005b34801561018457600080fd5b506100a061060d565b61017661061a565b3480156101a157600080fd5b50612711610148565b600080546101b790610ddb565b80601f01602080910402602001604051908101604052809291908181526020018280546101e390610ddb565b80156102305780601f1061020557610100808354040283529160200191610230565b820191906000526020600020905b81548152906001019060200180831161021357829003601f168201915b505050505081565b6000808267ffffffffffffffff16116102985760405162461bcd60e51b815260206004820152601760248201527f416d6f756e74206d75737420626520706f73697469766500000000000000000060448201526064015b60405180910390fd5b6001600160a01b0383166102ee5760405162461bcd60e51b815260206004820152601160248201527f496e76616c696420726563697069656e74000000000000000000000000000000604482015260640161028f565b60006102f98361071a565b336000908152600360205260408120549192506103168284610731565b9050600061032e82610328858761076a565b8561079c565b6001600160a01b0388166000908152600360205260408120549192509061037990849061035b90886107b1565b6001600160a01b038b1660009081526003602052604090205461079c565b336000908152600360205260408082208590556001600160a01b038b168252902081905590506103a982306107e3565b506103b482336107e3565b506103bf81306107e3565b506103ca81896107e3565b506103d583336107e3565b506040518381526001600160a01b0389169033907f8d61cf26ce654b1352bb60df9f3d4056b9e85a63977debf8fc9cd727aeda767e9060200160405180910390a36001955050505050505b92915050565b60008167ffffffffffffffff16116104805760405162461bcd60e51b815260206004820152601d60248201527f4d75737420776974686472617720706f73697469766520616d6f756e74000000604482015260640161028f565b60006103e86104a167ffffffffffffffff8416670de0b6b3a7640000610e15565b6104ab9190610e3a565b9050804710156105235760405162461bcd60e51b815260206004820152602160248201527f496e73756666696369656e7420636f6e7472616374204554482062616c616e6360448201527f6500000000000000000000000000000000000000000000000000000000000000606482015260840161028f565b600061052e8361071a565b3360009081526003602052604081205491925061054b8284610731565b9050600061055d82610328858761076a565b336000908152600360205260409020819055905061057b81306107e3565b5061058681336107e3565b5061059182336107e3565b50604051339086156108fc029087906000818181858888f193505050501580156105bf573d6000803e3d6000fd5b506040805167ffffffffffffffff881681526020810184905233917f806bc37112176c187cccea4249aea74827b609b5e40d595301442638bfd57367910160405180910390a2505050505050565b600180546101b790610ddb565b6000341161066a5760405162461bcd60e51b815260206004820152600d60248201527f4d7573742073656e642045544800000000000000000000000000000000000000604482015260640161028f565b6000670de0b6b3a7640000610681346103e8610e15565b61068b9190610e3a565b905060006106988261071a565b33600090815260036020526040812054919250906106b690836107b1565b33600090815260036020526040902081905590506106d481306107e3565b506106df81336107e3565b5060405134815233907fe1fffcc4923d04b559f4d29a8bfc6cda04eb5b0d3c460751c2402c5c5cc9109c9060200160405180910390a2505050565b60006104208267ffffffffffffffff1660056107f6565b60008261074557610742600061071a565b92505b8161075757610754600061071a565b91505b610763838360006108c8565b9392505050565b60008261077e5761077b600061071a565b92505b816107905761078d600061071a565b91505b610763838360006109e1565b60006107a9848484610ab1565b949350505050565b6000826107c5576107c2600061071a565b92505b816107d7576107d4600061071a565b91505b61076383836000610b77565b60006107ef8383610c47565b5090919050565b7f9e7b61f58c47dc699ac88507c4f5bb9f121c03808c5676a8078fe583e4649701546040517f9cd07acb0000000000000000000000000000000000000000000000000000000081526000917f9e7b61f58c47dc699ac88507c4f5bb9f121c03808c5676a8078fe583e4649700916001600160a01b0390911690639cd07acb906108859087908790600401610e5c565b6020604051808303816000875af11580156108a4573d6000803e3d6000fd5b505050506040513d601f19601f820116820180604052508101906107a99190610e8e565b60008082156108dc5750600160f81b6108e0565b5060005b7f9e7b61f58c47dc699ac88507c4f5bb9f121c03808c5676a8078fe583e4649701546040517f1391547f00000000000000000000000000000000000000000000000000000000815260048101879052602481018690527fff00000000000000000000000000000000000000000000000000000000000000831660448201527f9e7b61f58c47dc699ac88507c4f5bb9f121c03808c5676a8078fe583e4649700916001600160a01b031690631391547f906064015b6020604051808303816000875af11580156109b3573d6000803e3d6000fd5b505050506040513d601f19601f820116820180604052508101906109d79190610e8e565b9695505050505050565b60008082156109f55750600160f81b6109f9565b5060005b7f9e7b61f58c47dc699ac88507c4f5bb9f121c03808c5676a8078fe583e4649701546040517f182b6d9800000000000000000000000000000000000000000000000000000000815260048101879052602481018690527fff00000000000000000000000000000000000000000000000000000000000000831660448201527f9e7b61f58c47dc699ac88507c4f5bb9f121c03808c5676a8078fe583e4649700916001600160a01b03169063182b6d9890606401610994565b6000807f9e7b61f58c47dc699ac88507c4f5bb9f121c03808c5676a8078fe583e464970060018101546040517f7702dcff0000000000000000000000000000000000000000000000000000000081526004810188905260248101879052604481018690529192506001600160a01b031690637702dcff906064016020604051808303816000875af1158015610b4a573d6000803e3d6000fd5b505050506040513d601f19601f82011682018060405250810190610b6e9190610e8e565b95945050505050565b6000808215610b8b5750600160f81b610b8f565b5060005b7f9e7b61f58c47dc699ac88507c4f5bb9f121c03808c5676a8078fe583e4649701546040517f117b2f3800000000000000000000000000000000000000000000000000000000815260048101879052602481018690527fff00000000000000000000000000000000000000000000000000000000000000831660448201527f9e7b61f58c47dc699ac88507c4f5bb9f121c03808c5676a8078fe583e4649700916001600160a01b03169063117b2f3890606401610994565b60007f9e7b61f58c47dc699ac88507c4f5bb9f121c03808c5676a8078fe583e464970080546040517fb9496b62000000000000000000000000000000000000000000000000000000008152600481018690526001600160a01b03858116602483015292935091169063b9496b6290604401600060405180830381600087803b158015610cd257600080fd5b505af1158015610ce6573d6000803e3d6000fd5b50505050505050565b60006020808352835180602085015260005b81811015610d1d57858101830151858201604001528201610d01565b506000604082860101526040601f19601f8301168501019250505092915050565b80356001600160a01b0381168114610d5557600080fd5b919050565b803567ffffffffffffffff81168114610d5557600080fd5b60008060408385031215610d8557600080fd5b610d8e83610d3e565b9150610d9c60208401610d5a565b90509250929050565b600060208284031215610db757600080fd5b61076382610d3e565b600060208284031215610dd257600080fd5b61076382610d5a565b600181811c90821680610def57607f821691505b602082108103610e0f57634e487b7160e01b600052602260045260246000fd5b50919050565b808202811582820484141761042057634e487b7160e01b600052601160045260246000fd5b600082610e5757634e487b7160e01b600052601260045260246000fd5b500490565b8281526040810160548310610e8157634e487b7160e01b600052602160045260246000fd5b8260208301529392505050565b600060208284031215610ea057600080fd5b505191905056fea2646970667358221220aa0bcf048b3579beb9323e2b5cc50b55d45d8548ecd16f0e8efa659676ad21c664736f6c63430008180033",
  "linkReferences": {},
  "deployedLinkReferences": {}
}