{
  "_format": "hh-sol-artifact-1",
  "contractName": "GhostToken",
  "sourceName": "contracts/GhostToken.sol",
  "abi": [
    {
      "inputs": [],
      "stateMutability": "nonpayable",
      "type": "constructor"
    },
    {
      "anonymous": false,
      "inputs": [
        {
          "indexed": true,
          "internalType": "address",
          "name": "owner",
          "type": "address"
        },
        {
          "indexed": true,
          "internalType": "address",
          "name": "spender",
          "type": "address"
        },
        {
          "indexed": false,
          "internalType": "uint64",
          "name": "amount",
          "type": "uint64"
        }
      ],
      "name": "Approval",
      "type": "event"
    },
    {
      "anonymous": false,
      "inputs": [
        {
          "indexed": true,
          "internalType": "address",
          "name": "user",
          "type": "address"
        },
        {
          "indexed": false,
          "internalType": "uint256",
          "name": "amount",
          "type": "uint256"
        }
      ],
      "name": "Deposit",
      "type": "event"
    },
    {
      "anonymous": false,
      "inputs": [
        {
          "indexed": true,
          "internalType": "address",
          "name": "from",
          "type": "address"
        },
        {
          "indexed": true,
          "internalType": "address",
          "name": "to",
          "type": "address"
        },
        {
          "indexed": false,
          "internalType": "ebool",
          "name": "success",
          "type": "bytes32"
        }
      ],
      "name": "Transfer",
      "type": "event"
    },
    {
      "anonymous": false,
      "inputs": [
        {
          "indexed": true,
          "internalType": "address",
          "name": "user",
          "type": "address"
        },
        {
          "indexed": false,
          "internalType": "uint256",
          "name": "amount",
          "type": "uint256"
        },
        {
          "indexed": false,
          "internalType": "ebool",
          "name": "success",
          "type": "bytes32"
        }
      ],
      "name": "Withdrawal",
      "type": "event"
    },
    {
      "inputs": [
        {
          "internalType": "address",
          "name": "spender",
          "type": "address"
        },
        {
          "internalType": "uint64",
          "name": "amount",
          "type": "uint64"
        }
      ],
      "name": "approve",
      "outputs": [
        {
          "internalType": "bool",
          "name": "",
          "type": "bool"
        }
      ],
      "stateMutability": "nonpayable",
      "type": "function"
    },
    {
      "inputs": [
        {
          "internalType": "address",
          "name": "account",
          "type": "address"
        }
      ],
      "name": "balanceOf",
      "outputs": [
        {
          "internalType": "euint64",
          "name": "",
          "type": "bytes32"
        }
      ],
      "stateMutability": "view",
      "type": "function"
    },
    {
      "inputs": [],
      "name": "decimals",
      "outputs": [
        {
          "internalType": "uint8",
          "name": "",
          "type": "uint8"
        }
      ],
      "stateMutability": "view",
      "type": "function"
    },
    {
      "inputs": [],
      "name": "deposit",
      "outputs": [],
      "stateMutability": "payable",
      "type": "function"
    },
    {
      "inputs": [],
      "name": "name",
      "outputs": [
        {
          "internalType": "string",
          "name": "",
          "type": "string"
        }
      ],
      "stateMutability": "view",
      "type": "function"
    },
    {
      "inputs": [],
      "name": "protocolId",
      "outputs": [
        {
          "internalType": "uint256",
          "name": "",
          "type": "uint256"
        }
      ],
      "stateMutability": "pure",
      "type": "function"
    },
    {
      "inputs": [],
      "name": "symbol",
      "outputs": [
        {
          "internalType": "string",
          "name": "",
          "type": "string"
        }
      ],
      "stateMutability": "view",
      "type": "function"
    },
    {
      "inputs": [
        {
          "internalType": "address",
          "name": "to",
          "type": "address"
        },
        {
          "internalType": "uint64",
          "name": "amount",
          "type": "uint64"
        }
      ],
      "name": "transfer",
      "outputs": [
        {
          "internalType": "bool",
          "name": "",
          "type": "bool"
        }
      ],
      "stateMutability": "nonpayable",
      "type": "function"
    },
    {
      "inputs": [
        {
          "internalType": "address",
          "name": "from",
          "type": "address"
        },
        {
          "internalType": "address",
          "name": "to",
          "type": "address"
        },
        {
          "internalType": "uint64",
          "name": "amount",
          "type": "uint64"
        }
      ],
      "name": "transferFrom",
      "outputs": [
        {
          "internalType": "bool",
          "name": "",
          "type": "bool"
        }
      ],
      "stateMutability": "nonpayable",
      "type": "function"
    },
    {
      "inputs": [
        {
          "internalType": "uint64",
          "name": "tokenAmount",
          "type": "uint64"
        }
      ],
      "name": "withdraw",
      "outputs": [],
      "stateMutability": "nonpayable",
      "type": "function"
    },
    {
      "stateMutability": "payable",
      "type": "receive"
    }
  ],
  "bytecode": "0x60c0604052600b60809081526a23b437b9ba102a37b5b2b760a91b60a0526000906200002c90826200029e565b5060408051808201909152600581526411d213d4d560da1b60208201526001906200005890826200029e565b506002805460ff191660121790553480156200007357600080fd5b50620001f162000115604080516080810182526000808252602082018190529181018290526060810191909152506040805160808101825273687820221192c5b662b25367f70076a37bc79b6c815273848b0066793bcc60346da1f49049357399b8d595602082015273a02cda4ca3a71d7c46997716f4283aa851c2881291810191909152731364cbbf2cdf5032c47d8226a6f6fbd2afcdacac606082015290565b80517f9e7b61f58c47dc699ac88507c4f5bb9f121c03808c5676a8078fe583e464970080546001600160a01b03199081166001600160a01b039384161790915560208301517f9e7b61f58c47dc699ac88507c4f5bb9f121c03808c5676a8078fe583e46497018054831691841691909117905560408301517f9e7b61f58c47dc699ac88507c4f5bb9f121c03808c5676a8078fe583e46497028054831691841691909117905560608301517f9e7b61f58c47dc699ac88507c4f5bb9f121c03808c5676a8078fe583e46497038054909216921691909117905550565b6200036a565b634e487b7160e01b600052604160045260246000fd5b600181811c908216806200022257607f821691505b6020821081036200024357634e487b7160e01b600052602260045260246000fd5b50919050565b601f82111562000299576000816000526020600020601f850160051c81016020861015620002745750805b601f850160051c820191505b81811015620002955782815560010162000280565b5050505b505050565b81516001600160401b03811115620002ba57620002ba620001f7565b620002d281620002cb84546200020d565b8462000249565b602080601f8311600181146200030a5760008415620002f15750858301515b600019600386901b1c1916600185901b17855562000295565b600085815260208120601f198616915b828110156200033b578886015182559484019460019091019084016200031a565b50858210156200035a5787850151600019600388901b60f8161c191681555b5050505050600190811b01905550565b61152e806200037a6000396000f3fe6080604052600436106100b55760003560e01c806370a082311161006957806395d89b411161004e57806395d89b41146101ee578063d0e30db014610203578063da1f12ab1461020b57600080fd5b806370a0823114610188578063750f0acc146101cc57600080fd5b80632ea0dfe11161009a5780632ea0dfe11461011c578063313ce5671461013c5780635d359fbd1461016857600080fd5b806306fdde03146100c15780631086a9aa146100ec57600080fd5b366100bc57005b600080fd5b3480156100cd57600080fd5b506100d6610220565b6040516100e391906112fd565b60405180910390f35b3480156100f857600080fd5b5061010c610107366004611380565b6102ae565b60405190151581526020016100e3565b34801561012857600080fd5b5061010c6101373660046113b3565b6103bf565b34801561014857600080fd5b506002546101569060ff1681565b60405160ff90911681526020016100e3565b34801561017457600080fd5b5061010c610183366004611380565b61073d565b34801561019457600080fd5b506101be6101a33660046113f6565b6001600160a01b031660009081526003602052604090205490565b6040519081526020016100e3565b3480156101d857600080fd5b506101ec6101e7366004611411565b610944565b005b3480156101fa57600080fd5b506100d6610b41565b6101ec610b4e565b34801561021757600080fd5b506127116101be565b6000805461022d9061142c565b80601f01602080910402602001604051908101604052809291908181526020018280546102599061142c565b80156102a65780601f1061027b576101008083540402835291602001916102a6565b820191906000526020600020905b81548152906001019060200180831161028957829003601f168201915b505050505081565b60006001600160a01b03831661030b5760405162461bcd60e51b815260206004820152600f60248201527f496e76616c6964207370656e646572000000000000000000000000000000000060448201526064015b60405180910390fd5b600061031683610c58565b3360009081526004602090815260408083206001600160a01b03891684529091529020819055905061034781610c6f565b506103528130610c7f565b5061035d8133610c7f565b506103688185610c7f565b5060405167ffffffffffffffff841681526001600160a01b0385169033907f16304dfea7f3fbabcf59225f0629cb307fecb8d5652b069080aa9be2c765d7d29060200160405180910390a360019150505b92915050565b6000808267ffffffffffffffff161161041a5760405162461bcd60e51b815260206004820152601760248201527f416d6f756e74206d75737420626520706f7369746976650000000000000000006044820152606401610302565b6001600160a01b0383166104705760405162461bcd60e51b815260206004820152601160248201527f496e76616c696420726563697069656e740000000000000000000000000000006044820152606401610302565b6001600160a01b0384166104c65760405162461bcd60e51b815260206004820152600e60248201527f496e76616c69642073656e6465720000000000000000000000000000000000006044820152606401610302565b60006104d183610c58565b6001600160a01b03861660009081526003602090815260408083205460048352818420338552909252909120549192509061050b82610c6f565b5061051581610c6f565b5060006105228385610c92565b905060006105308386610c92565b9050600061053e8383610ccb565b9050600061055682610550888a610cfd565b88610d2f565b6001600160a01b038b16600090815260036020526040812054919250906105a1908490610583908b610d44565b6001600160a01b038e16600090815260036020526040902054610d2f565b905060006105b9846105b3898c610cfd565b89610d2f565b905082600360008f6001600160a01b03166001600160a01b031681526020019081526020016000208190555081600360008e6001600160a01b03166001600160a01b031681526020019081526020016000208190555080600460008f6001600160a01b03166001600160a01b031681526020019081526020016000206000336001600160a01b03166001600160a01b031681526020019081526020016000208190555061066583610c6f565b5061066f82610c6f565b5061067981610c6f565b506106848330610c7f565b5061068f838e610c7f565b5061069a8230610c7f565b506106a5828d610c7f565b506106b08130610c7f565b506106bb818e610c7f565b506106c68133610c7f565b506106d1848e610c7f565b506106dc8433610c7f565b508b6001600160a01b03168d6001600160a01b03167f8d61cf26ce654b1352bb60df9f3d4056b9e85a63977debf8fc9cd727aeda767e8660405161072291815260200190565b60405180910390a35060019c9b505050505050505050505050565b6000808267ffffffffffffffff16116107985760405162461bcd60e51b815260206004820152601760248201527f416d6f756e74206d75737420626520706f7369746976650000000000000000006044820152606401610302565b6001600160a01b0383166107ee5760405162461bcd60e51b815260206004820152601160248201527f496e76616c696420726563697069656e740000000000000000000000000000006044820152606401610302565b60006107f983610c58565b3360009081526003602052604090205490915061081581610c6f565b5060006108228284610c92565b9050600061083a826108348587610cfd565b85610d2f565b6001600160a01b038816600090815260036020526040812054919250906108859084906108679088610d44565b6001600160a01b038b16600090815260036020526040902054610d2f565b336000908152600360205260408082208590556001600160a01b038b168252902081905590506108b482610c6f565b506108be81610c6f565b506108c98230610c7f565b506108d48233610c7f565b506108df8130610c7f565b506108ea8189610c7f565b506108f58333610c7f565b506040518381526001600160a01b0389169033907f8d61cf26ce654b1352bb60df9f3d4056b9e85a63977debf8fc9cd727aeda767e9060200160405180910390a3506001979650505050505050565b60008167ffffffffffffffff161161099e5760405162461bcd60e51b815260206004820152601d60248201527f4d75737420776974686472617720706f73697469766520616d6f756e740000006044820152606401610302565b60006103e86109bf67ffffffffffffffff8416670de0b6b3a7640000611466565b6109c9919061148b565b905080471015610a415760405162461bcd60e51b815260206004820152602160248201527f496e73756666696369656e7420636f6e7472616374204554482062616c616e6360448201527f65000000000000000000000000000000000000000000000000000000000000006064820152608401610302565b6000610a4c83610c58565b33600090815260036020526040902054909150610a6881610c6f565b506000610a758284610c92565b90506000610a87826108348587610cfd565b3360009081526003602052604090208190559050610aa481610c6f565b50610aaf8130610c7f565b50610aba8133610c7f565b50610ac58233610c7f565b50604051339086156108fc029087906000818181858888f19350505050158015610af3573d6000803e3d6000fd5b506040805167ffffffffffffffff881681526020810184905233917f806bc37112176c187cccea4249aea74827b609b5e40d595301442638bfd57367910160405180910390a2505050505050565b6001805461022d9061142c565b60003411610b9e5760405162461bcd60e51b815260206004820152600d60248201527f4d7573742073656e6420455448000000000000000000000000000000000000006044820152606401610302565b6000670de0b6b3a7640000610bb5346103e8611466565b610bbf919061148b565b90506000610bcc82610c58565b3360009081526003602052604081205491925090610bea9083610d44565b3360009081526003602052604090208190559050610c0781610c6f565b50610c128130610c7f565b50610c1d8133610c7f565b5060405134815233907fe1fffcc4923d04b559f4d29a8bfc6cda04eb5b0d3c460751c2402c5c5cc9109c9060200160405180910390a2505050565b60006103b98267ffffffffffffffff166005610d76565b6000610c7b8230610e48565b5090565b6000610c8b8383610e48565b5090919050565b600082610ca657610ca36000610c58565b92505b81610cb857610cb56000610c58565b91505b610cc483836000610ef0565b9392505050565b600082610cdf57610cdc6000610ff1565b92505b81610cf157610cee6000610ff1565b91505b610cc48383600061100f565b600082610d1157610d0e6000610c58565b92505b81610d2357610d206000610c58565b91505b610cc4838360006110c7565b6000610d3c84848461117f565b949350505050565b600082610d5857610d556000610c58565b92505b81610d6a57610d676000610c58565b91505b610cc483836000611245565b7f9e7b61f58c47dc699ac88507c4f5bb9f121c03808c5676a8078fe583e4649701546040517f9cd07acb0000000000000000000000000000000000000000000000000000000081526000917f9e7b61f58c47dc699ac88507c4f5bb9f121c03808c5676a8078fe583e4649700916001600160a01b0390911690639cd07acb90610e0590879087906004016114ad565b6020604051808303816000875af1158015610e24573d6000803e3d6000fd5b505050506040513d601f19601f82011682018060405250810190610d3c91906114df565b60007f9e7b61f58c47dc699ac88507c4f5bb9f121c03808c5676a8078fe583e464970080546040517fb9496b62000000000000000000000000000000000000000000000000000000008152600481018690526001600160a01b03858116602483015292935091169063b9496b6290604401600060405180830381600087803b158015610ed357600080fd5b505af1158015610ee7573d6000803e3d6000fd5b50505050505050565b6000808215610f045750600160f81b610f08565b5060005b7f9e7b61f58c47dc699ac88507c4f5bb9f121c03808c5676a8078fe583e4649701546040517f1391547f00000000000000000000000000000000000000000000000000000000815260048101879052602481018690526001600160f81b0319831660448201527f9e7b61f58c47dc699ac88507c4f5bb9f121c03808c5676a8078fe583e4649700916001600160a01b031690631391547f906064015b6020604051808303816000875af1158015610fc3573d6000803e3d6000fd5b505050506040513d601f19601f82011682018060405250810190610fe791906114df565b9695505050505050565b60006103b982611002576000611005565b60015b60ff166000610d76565b60008082156110235750600160f81b611027565b5060005b7f9e7b61f58c47dc699ac88507c4f5bb9f121c03808c5676a8078fe583e4649701546040517fd99882d500000000000000000000000000000000000000000000000000000000815260048101879052602481018690526001600160f81b0319831660448201527f9e7b61f58c47dc699ac88507c4f5bb9f121c03808c5676a8078fe583e4649700916001600160a01b03169063d99882d590606401610fa4565b60008082156110db5750600160f81b6110df565b5060005b7f9e7b61f58c47dc699ac88507c4f5bb9f121c03808c5676a8078fe583e4649701546040517f182b6d9800000000000000000000000000000000000000000000000000000000815260048101879052602481018690526001600160f81b0319831660448201527f9e7b61f58c47dc699ac88507c4f5bb9f121c03808c5676a8078fe583e4649700916001600160a01b03169063182b6d9890606401610fa4565b6000807f9e7b61f58c47dc699ac88507c4f5bb9f121c03808c5676a8078fe583e464970060018101546040517f7702dcff0000000000000000000000000000000000000000000000000000000081526004810188905260248101879052604481018690529192506001600160a01b031690637702dcff906064016020604051808303816000875af1158015611218573d6000803e3d6000fd5b505050506040513d601f19601f8201168201806040525081019061123c91906114df565b95945050505050565b60008082156112595750600160f81b61125d565b5060005b7f9e7b61f58c47dc699ac88507c4f5bb9f121c03808c5676a8078fe583e4649701546040517f117b2f3800000000000000000000000000000000000000000000000000000000815260048101879052602481018690526001600160f81b0319831660448201527f9e7b61f58c47dc699ac88507c4f5bb9f121c03808c5676a8078fe583e4649700916001600160a01b03169063117b2f3890606401610fa4565b60006020808352835180602085015260005b8181101561132b5785810183015185820160400152820161130f565b506000604082860101526040601f19601f8301168501019250505092915050565b80356001600160a01b038116811461136357600080fd5b919050565b803567ffffffffffffffff8116811461136357600080fd5b6000806040838503121561139357600080fd5b61139c8361134c565b91506113aa60208401611368565b90509250929050565b6000806000606084860312156113c857600080fd5b6113d18461134c565b92506113df6020850161134c565b91506113ed60408501611368565b90509250925092565b60006020828403121561140857600080fd5b610cc48261134c565b60006020828403121561142357600080fd5b610cc482611368565b600181811c9082168061144057607f821691505b60208210810361146057634e487b7160e01b600052602260045260246000fd5b50919050565b80820281158282048414176103b957634e487b7160e01b600052601160045260246000fd5b6000826114a857634e487b7160e01b600052601260045260246000fd5b500490565b82815260408101605483106114d257634e487b7160e01b600052602160045260246000fd5b8260208301529392505050565b6000602082840312156114f157600080fd5b505191905056fea264697066735822122068dba334532df9bafd569a1f0d82697511190a4c7aff3e9c58deb3eb4524bd1264736f6c63430008180033",
  "linkReferences": {},
  "deployedLinkReferences": {}
}